:020000040800F2
:10000000B06E0120FD02000809120008B10C0008C2
:10001000431000086D0B00083D2A00080000000096
:10002000000000000000000000000000191400089B
:100030007F0B000800000000A712000861180008EC
:100040001703000817030008170300081703000828
:100050001703000817030008170300081703000818
:100060001703000817030008170300081703000808
:1000700017030008170300081703000817030008F8
:1000800017030008170300081703000817030008E8
:1000900017030008170300081703000817030008D8
:1000A00017030008170300081703000817030008C8
:1000B00017030008170300081703000817030008B8
:1000C00017030008170300081703000817030008A8
:1000D0001703000881220008E122000841230008DC
:1000E0001703000817030008170300081703000888
:1000F0001703000817030008170300081703000878
:100100001703000817030008170300081703000867
:10011000B520000879210008C11A0008591C000800
:100120001703000817030008170300081703000847
:100130001703000817030008170300081703000837
:100140001703000817030008170300081703000827
:10015000170300081703000817030008A12300086D
:100160001703000817030008170300081703000807
:1001700017030008170300081703000817030008F7
:10018000170300081703000800F002F800F047F812
:100190000AA090E8000C82448344AAF10107DA45E2
:1001A00001D100F03CF8AFF2090EBAE80F0013F0ED
:1001B000010F18BFFB1A43F0010318475448000011
:1001C00074480000103A24BF78C878C1FAD85207A2
:1001D00024BF30C830C144BF04680C6070470000C1
:1001E0000023002400250026103A28BF78C1FBD840
:1001F000520728BF30C148BF0B607047642900F028
:100200001181782900F04A81732900F07883002059
:1002100070471FB504F0D0FB1FBD10B510BD00F036
:10022000BBFB1146FFF7F5FF02F080FD00F0D9FBA4
:1002300003B4FFF7F2FF03BC02F08BFC2C4B1968F0
:100240000868B0E8F04F80F30988BFF36F8F4FF074
:10025000000080F311887047000000000848006823
:10026000006880F308884FF0000080F3148862B6BD
:1002700061B6BFF34F8FBFF36F8F00DF00BF00BFCA
:1002800008ED00E0DFF80C00016841F47001016046
:10029000704700BF88ED00E0EFF30980BFF36F8F78
:1002A000134B1A681EF0100F08BF20ED108A20E9CA
:1002B000F04F106009B44FF0500080F31188BFF385
:1002C0004F8FBFF36F8F03F0E5FE4FF0000080F318
:1002D000118809BC19680868B0E8F04F1EF0100FCB
:1002E00008BFB0EC108A80F30988BFF36F8F7047A6
:1002F000A0000020EFF30580704700000948804708
:1003000009480047FEE7FEE7FEE7FEE7FEE7FEE7F7
:10031000FEE7FEE7FEE7FEE704480549054A064B0F
:10032000704700006918000889010008B04E0120DC
:10033000B06E0120B05E0120B05E01207047000069
:100340000FB4044910B503AA029800F0DDFA10BCFE
:100350005DF814FB100000200FB41CB5084B06AA72
:100360007B4469460090059800F09FFA04460020FF
:10037000694600F0ADFA20461CBC5DF814FB000095
:100380006D05000070B5044685690068C10601D599
:10039000302600E02026C00707D070BDD4E9012137
:1003A00030469047206A401C20626D1EF6D570BD15
:1003B00070B5044685690078C00707D170BDD4E9DF
:1003C000012120209047206A401C20626D1EF6D536
:1003D00070BD70B50C460546012A05D02878800608
:1003E00000D5EA69002302E0012305E05B1C93428B
:1003F00002D2E05C0028F9D1A869E618C01AA86109
:10040000286A184428622846FFF7BCFF04E0D5E9B3
:10041000012114F8010B9047B442F8D32846FFF7A6
:10042000C7FF70BD2DE9F04106460024106875290C
:10043000314616A510D0AFF30080002802DA404202
:1004400013A507E031688A0701D512A502E0490724
:1004500004D511A5012401E0AFF3008000210A2298
:1004600006F1240709E0B0FBF2FCB0FBF2F302FB5B
:100470001C00303078541846491C0028F3D123461C
:100480002A463046BDE8F04100F0B1B90000000056
:100490002D0000002B0000002000000070B5044675
:1004A0000D4621461068AFF300802188090502D56A
:1004B0000F4A7A4402E00E4A7A440E32002104F1D7
:1004C000240305E000F00F060009965D5E54491C08
:1004D0000028F7D120780023000704D5702D02D022
:1004E00009B1022311322046BDE8704000F07FB907
:1004F0001E4500002DE9F05F894604464FF0000AD2
:10050000DFF874B1FB44C0F820A02046E1688847BA
:10051000002874D0252806D0D4E901219047206A0C
:10052000401C2062F1E700265F462046E1688847CC
:100530002028054607DB312D05D2781910F8200C4C
:1005400008B10643F1E7B00701D526F00406C4F868
:100550001CA00027C4F818A02A2D09D0284602F0B4
:10056000F1FA38B304EB8708303DC8F8185019E0A9
:1005700059F8041B204604EB87029161E168884723
:10058000012F054618D1E069002820DA26F0200660
:100590001DE0D8F8180000EB800005EB4000303873
:1005A000C8F818002046E1688847054602F0CAFAF4
:1005B0000028EED1012F0AD02E2D08D12046E16867
:1005C00088477F1C0546022F46F02006C4DBA06941
:1005D000002803DA404246F00106A061F00701D08E
:1005E00026F010066C2D0BD0682D09D04C2D39D07B
:1005F0006A2D35D0742D35D07A2D33D016E038E001
:10060000E1682F4620468847B842054609D16C2F3D
:1006100026D04FF48060E1680643204688470546AF
:1006200004E06C2F1AD04FF4807006430DB3A5F18F
:100630004100192802D8203546F400664A4629466A
:10064000204626604E46FFF7D9FD80B101280BD029
:10065000F61D26F0070000F1080956E74020E4E700
:100660008020D8E70020D6E706F104094DE72846A8
:1006700052E7206ABDE8F09FF444000010B5431C27
:1006800002E010F8011B71B18107FAD14FF001327D
:1006900002C88C1A8C4314EAC211F9D0C01A0A0697
:1006A00003D0C01E10BDC01A10BD0A0401D0801EA8
:1006B00010BD0902FCD0401E10BD032A40F230805C
:1006C00010F0030C00F0158011F8013BBCF1020F93
:1006D000624498BF11F801CB00F8013B38BF11F814
:1006E000013BA2F1040298BF00F801CB38BF00F82B
:1006F000013B11F0030300F01981083AC0F00880B3
:1007000051F8043B083A51F804CBA0E80810F5E78B
:10071000121D5CBF51F8043B40F8043BAFF300806E
:10072000D20724BF11F8013B11F801CB48BF11F8E3
:10073000012B24BF00F8013B00F801CB48BF00F8B3
:10074000012B704702F0FF0343EA032242EA024210
:1007500000F002B84FF000020429C0F0128010F03F
:10076000030C00F01B80CCF1040CBCF1020F18BF8D
:1007700000F8012BA8BF20F8022BA1EB0C0100F020
:100780000DB85FEAC17C24BF00F8012B00F8012BF3
:1007900048BF00F8012B70474FF0000200B5134628
:1007A00094469646203922BFA0E80C50A0E80C5091
:1007B000B1F12001BFF4F7AF090728BFA0E80C5042
:1007C00048BF0CC05DF804EB890028BF40F8042B3B
:1007D00008BF704748BF20F8022B11F0804F18BFA8
:1007E00000F8012B704770477047704770472DE93C
:1007F000F0470D4699469246044600F124080168E8
:10080000880604D5E06921F01001216000E0012094
:10081000A84201DD471B00E00027A1697A1902EB1D
:100820000900081AA0612078C00602D42046FFF70C
:10083000A9FD002608E0D4E901211AF80600904736
:10084000206A401C761C20624E45F4DB2078C006EE
:100850000AD52046FFF796FD06E0D4E901213020B5
:100860009047206A401C2062381EA7F10107F4DC83
:1008700007E0D4E9012118F805009047206A401CE0
:100880002062281EA5F10105F3DC2046FFF790FD4C
:100890002078000602D50220BDE8F0870120FBE7A2
:1008A00001694A1C02610878704700B58FB0CDE934
:1008B00001310021059105497944CDE90310114624
:1008C0006846FFF717FE0FB000BD0000E5FFFFFF11
:1008D0000A6802F8010B0A60704710B5436913B14A
:1008E000AFF3008001E0FFF774FD012010BD127826
:1008F00000F124010A7000224A700122EDE711681C
:100900004FF0FF32E9E70000074B70B50D467B441E
:10091000FFF7CBFF0446284600F03AF810B14FF03D
:10092000FF3070BD204670BDFB22000010B5203A9C
:10093000C0F00B80B1E81850203AA0E81850B1E898
:100940001850A0E81850BFF4F5AF5FEA027C24BF4E
:10095000B1E81850A0E8185044BF18C918C0BDE845
:1009600010405FEA827C24BF51F8043B40F8043B0E
:1009700008BF7047D20728BF31F8023B48BF11F8C3
:10098000012B28BF20F8023B48BF00F8012B70471D
:10099000007B00F080007047754600F02BF8AE46F3
:1009A00005006946534620F00700854618B020B57B
:1009B000FFF7B2FCBDE820404FF000064FF0000703
:1009C0004FF000084FF0000B21F00701AC46ACE8F7
:1009D000C009ACE8C009ACE8C009ACE8C0098D4664
:1009E000704710B50446AFF300802046BDE81040C4
:1009F000FFF71EBC00487047504E012021B18268AD
:100A000042F00102826003E0826822F0010282600B
:100A1000704700000021084A1168084A1140D0E9D7
:100A200000231A4383681A43C3681A431143044AD4
:100A3000C2F804137047000004230140E030FCFFBB
:100A40000020014030B50246002000235068104CC1
:100A500020400D790C6844EA0524204350609068DA
:100A60000C4C2040D1E903542C438D682C434D7924
:100A700044EA450420439060D06A20F470000C7D65
:100A8000641EE4B2234340EA0350D06230BD00004C
:100A9000FFFEFFFCFDF7FFC0F0B504460D46002049
:100AA0000021092D11DDE068A5F10A0606EB4607D5
:100AB000072606FA07F18843A5F10A0606EB460663
:100AC00003FA06F10843E0600CE0206905EB4507F6
:100AD000072606FA07F1884305EB450603FA06F1F7
:100AE00008432061072A0FDA606B561E06EB860763
:100AF0001F2606FA07F18843561E06EB860605FAFE
:100B000006F10843606322E00D2A0FDA206BD61F3E
:100B100006EB86071F2606FA07F18843D61F06EB69
:100B2000860605FA06F10843206310E0E06AA2F1A8
:100B30000D0606EB86071F2606FA07F18843A2F189
:100B40000D0606EB860605FA06F10843E062F0BDE5
:100B500070B504460D4622460221084600F0D6FC38
:100B60002A460221012000F0D1FC70BD00BFFEE743
:100B700010B500220121032000F0C8FC10BD704711
:100B800070B504460D4622460121022000F0BEFC4D
:100B90002A460121084600F0B9FC70BDF0B50A46AE
:100BA00000210023002400BF3DE0012505FA01F3E8
:100BB000156805EA03049C4234D105684F000326FA
:100BC000BE40B543056015794E00B5400668354313
:100BD00005601579012D02D01579022D16D1856891
:100BE0004F000326BE40B543856055794E00B540A1
:100BF000866835438560456801268E40B54345606B
:100C0000456896798E40B6B235434560C5684F0059
:100C10000326BE40B543C560D5794E00B540C668D1
:100C20003543C560491C1029BFD3F0BDF0B5002382
:100C300000244D07ED0E02FA05F3CE1000F1200559
:100C400055F826504E07F70E0F26BE40B543CF107D
:100C500000F1200646F82750CE1000F1200555F887
:100C6000265045EA0304CE1000F1200545F8264041
:100C7000F0BD0A04826170478161704710B52DEDA7
:100C8000028B3F21502000F015F80446C01704EBFA
:100C90005040C013B42110FB01F000EE100AB8EE72
:100CA000C00AB0EE408AB0EE480ABDEC028B10BD1F
:100CB00000BFFEE738B504460D460020009000F066
:100CC00037F9002141EA4401C8B200F0FDF80A20DA
:100CD00001F068FF00F078F920B100F04FF94FF013
:100CE000FF3038BD052001F05DFF284600F0ECF82C
:100CF000052001F057FF00F067F920B100F03EF940
:100D00004FF0FF30EDE7052001F04CFF00F010F947
:100D1000052001F047FF012101EB4401C8B200F0BA
:100D2000D3F8052001F03EFF00F04EF920B100F0AD
:100D300025F94FF0FF30D4E7052001F033FF012003
:100D400000F08CF88DF80000052001F02BFF00204A
:100D500000F084F88DF80100052001F023FF00F079
:100D60000DF99DF800009DF8011040EA012000B245
:100D7000B7E7000010B500200F4908600F48006871
:100D800020F440400D4908600846006840F4804067
:100D9000086000200A49C1F89C02022001F002FF0D
:100DA000012005490860022001F0FCFE00200449F2
:100DB000C1F8980210BD0000988240420004024031
:100DC000008040421CB50121022000F071FAC020D1
:100DD000009001208DF8040000208DF8060003200B
:100DE0008DF8050001208DF8070069460448FFF7DB
:100DF000D5FE0120034908600349C1F89C021CBDCF
:100E000000040240988240420080404210B5002019
:100E10000F4908600F48006820F440400D49086001
:100E20000846006840F48040086001200A49C1F883
:100E30009C02022001F0B6FE012005490860022054
:100E400001F0B0FE00200449C1F8980210BD000076
:100E500098824042000402400080404270B505463E
:100E600000241648006820F44040144908600846F1
:100E700000680860002616E0002011490860022082
:100E800001F090FE01200F49C1F898026006040E9F
:100E90000B487C38006808B1601CC4B2012001F026
:100EA00081FE701CC6B2082EE6DB15B9FFF7AEFF57
:100EB00001E0FFF75FFF204670BD00000004024024
:100EC000988240420080404270B504461548006850
:100ED00020F44040134908600846006840F4804010
:100EE0000860002010490860002517E0E0090E495D
:100EF000091D08606006040E022001F053FE012067
:100F00000A49C1F89802022001F04CFE002006496F
:100F10000860022001F046FE681CC5B2082DE5DB22
:100F200070BD0000000402409882404200804042B0
:100F300010B50F48006820F440400D49086008468D
:100F4000006840F48040086001200A4908600A49AE
:100F5000C1F89802042001F025FE00200549086030
:100F6000042001F01FFE00200349C1F8980210BDC3
:100F7000000402409C8240420080404210B50F486D
:100F8000006820F440400D4908600846006840F4BD
:100F90008040086000200A4908600A49C1F89C02A4
:100FA000042001F0FFFD0120054908600549C1F852
:100FB0009C02042001F0F6FD10BD00000004024078
:100FC000988240420080404210B5002413480068D7
:100FD00020F440401149086008460068086001207C
:100FE0000F49086001F0DEFD01200E49C1F89802AA
:100FF00001F0D8FD07E0601CC4B2FA2C03DDFFF756
:10100000BDFF012010BD0648803800680028F2D1DD
:101010000349091F086000BFF4E700000004024014
:101020009C8240420080404203E04FF4FA6002F0AC
:101030001BFFFAE704E001F009FE322002F014FF82
:10104000F9E700BFFEE710B55321632000F094FCE0
:101050005321632000F03CFC5321632000F0E0FCAE
:1010600001F0BCFE01F0D4FE01F0ECFE00F096FAB7
:1010700010BD000075E03B480078002871D00020CA
:1010800038490870384800780B2869D2DFE800F04A
:1010900068060D141B222528415A65003348017843
:1010A00033480078FFF76CFD5AE03048017830484B
:1010B0000078FFF74DFD53E02C4801782C4800786C
:1010C00000F0E5FE4CE0294801782948007800F05E
:1010D000ECFE45E000F0E0F842E0FFF749FD3FE0BC
:1010E000234800780A3022490870204800780A30E6
:1010F0001E4908701E480078642802DB64201C49E1
:1011000008701A480078642802DB642017490870C8
:1011100026E0174800780A38154908701348007807
:101120000A381249087012480078C82802DD0020E9
:101130000F4908700D480078C82802DD00200B49CF
:1011400008700DE000220121022000F0DFF90022EA
:101150000121084600F0DAF902E0FFF709FD00BFBF
:1011600000BF88E7570000205800002055000020ED
:101170005400002000B58DB00121042000F098F843
:101180000121080200F0B4F801200B9003208DF833
:1011900030008DF8310000208DF833000BA918487D
:1011A000FFF7FCFC0121080200F0B2F800214FF427
:1011B000807000F0ADF800200190049003904FF48F
:1011C0008030029001A8FFF725FC002005908DF8E3
:1011D00019008DF81800099001208DF8280005A944
:1011E0000848FFF72FFC062301220A210548FFF7D4
:1011F00053FC01210348FFF701FC0DB000BD0000C6
:1012000000080240002001407047000070B5002136
:1012100000230F22C4781CB3174C246804F4E06444
:10122000C4F5E064C4F30721C1F10404E3B20A4148
:1012300044789C40E1B28478144021430C07210E8D
:101240000E4C05786155047804F01F050124AC406C
:1012500005786D11AD0005F1E025C5F8004109E004
:10126000047804F01F050124AC40054D0678761182
:1012700045F8264070BD00000CED00E000E400E001
:1012800080E100E002490143024A1160704700001A
:101290000000FA050CED00E010B5642201210320E6
:1012A00000F034F910BD10B5FEF7F6FF10BD0000D8
:1012B00029B1064A12680243044B1A6004E0034A4B
:1012C00012688243014B1A607047000030380240B8
:1012D00029B1064A12680243044B1A6004E0034A2B
:1012E00012688243014B1A60704700004038024088
:1012F00029B1064A12680243044B1A6004E0034A0B
:1013000012688243014B1A60704700004438024063
:1013100029B1064A12680243044B1A6004E0034AEA
:1013200012688243014B1A60704700002438024063
:10133000F0B5002100220024022500260223324FAE
:101340003F6807F00C0121B1042905D0082937D1E5
:1013500005E02E4F076036E02D4F076033E02A4F3F
:101360003F1F3F68C7F38056274F3F1F3F6807F076
:101370003F036EB1264FB7FBF3F7DFF88CC0ACF13B
:10138000040CDCF800C0CCF3881C07FB0CF40CE068
:101390001E4FB7FBF3F7DFF870C0ACF1040CDCF8BC
:1013A00000C0CCF3881C07FB0CF4174F3F1F3F68AD
:1013B000C7F301477F1C7D00B4FBF5F7076002E02F
:1013C000124F076000BF00BF0F4F3F6807F0F001EA
:1013D0000909104F7A5C0768D74047600A4F3F6899
:1013E00007F4E051890A0B4F7A5C4768D740876061
:1013F000054F3F6807F46041490B064F7A5C476828
:10140000D740C760F0BD0000083802400024F40057
:1014100000127A000000002010B5FEF70FFF10BD8B
:101420000CB50020019000903448006840F48030F2
:101430003249086000BF3148006800F40030009075
:101440000198401C0190009818B90198B0F5A04F80
:10145000F1D12A48006800F4003010B1012000905A
:1014600001E0002000900098012846D12348403038
:10147000006840F0805021494031086020480068F1
:1014800040F440401E4908601C48083000681B4971
:10149000083108600846006840F4004008600846CB
:1014A000006840F4A05008601648091F0860081F33
:1014B000006840F08070091F086000BF0F48006896
:1014C00000F000700028F9D040F205700E49086065
:1014D0000A480830006820F0030008490831086015
:1014E0000846006840F00200086000BF034808306A
:1014F000006800F00C000828F8D10CBD003802404C
:101500000070004008544007003C024070B5064699
:101510000C461546012E04D0022E12D0032E30D1D7
:101520001FE0012C04D180211748FFF7A2FB03E044
:1015300080211548FFF7A0FB2946144800F04BFC1A
:101540001FE0012C04D110211148FFF792FB03E0AA
:1015500010210F48FFF790FB29460E4800F03BFC96
:101560000FE0012C04D110210748FFF782FB03E0B4
:1015700010210548FFF780FB2946074800F02BFCA7
:1015800000BF00BF70BD00000000024000480140E5
:101590000008024000440140001C004010B500213A
:1015A000054800F018FC0021044800F014FC00215C
:1015B000034800F010FC10BD004801400044014009
:1015C000001C004000B50246907C10B300209074CF
:1015D000108800F057F8E0B1D37C901C30F813006D
:1015E000D168081AD0601188D37C901C20F81310A1
:1015F0001188D0680844D060D07C401CD074D07C66
:10160000052801DB0020D0740521D068B0FBF1F083
:10161000108200BD1FB51A4BD3E901021968DB68BF
:1016200001AC0DC40091002427E05DF824001421D2
:10163000FFF7B2F8002007E04FF4FA625DF82410DB
:10164000891C21F81020401C0528F5DB42F210709F
:101650005DF82410C8604FF4FA605DF82410088229
:101660004FF6FD705DF82410088000205DF824100E
:1016700088745DF82410C874641C042CD5DB1FBD6D
:10168000C449000801464FF6FD70814204D0B1F50F
:10169000FA6F01DC012070470020FCE701807047F1
:1016A0001CB5044602F0D0FA28480121002380220C
:1016B000CDE9001026A12C4802F09AFE012802D0A4
:1016C0002AA0FEF73DFE3048012100238022CDE90B
:1016D00000102EA1314802F08BFE012802D030A06C
:1016E000FEF72EFE3548012100238022CDE90010AF
:1016F00033A1384802F07CFE012802D036A0FEF764
:101700001FFE3D48032100234FF40072CDE9001075
:101710003AA13F4802F06CFE012802D03DA0FEF73E
:101720000FFE4348022100230A02CDE9001041A127
:10173000434802F05DFE012802D042A0FEF700FE01
:1017400002F094FA002002F0A9FB1CBD600000200A
:10175000636865636B20666F7220776174657220C1
:10176000656E747279000000412A00087761746523
:1017700072207461736B2063726561746520657299
:10178000726F72200D0A00006C000020636F6E748F
:10179000726F6C206D6F74696F6E000075100008B9
:1017A0006D6F7665207461736B206372656174651B
:1017B000206572726F72200D0A0000006400002024
:1017C00067657420756C747261736F6E69632064F1
:1017D00061746100F5290008756C747261736F6E35
:1017E0006963207461736B20637265617465206541
:1017F00072726F72200D0A007000002072656164C1
:1018000020696D752064617461207461736B0000E0
:1018100029100008696D75207461736B206372650F
:10182000617465206572726F72200D0A00000000FD
:1018300074000020696D75207478203230687A0059
:1018400035100008696D75207478207461736B2001
:10185000637265617465206572726F72200D0A0093
:1018600010B502F07BFC10BD10B51548006840F4BF
:101870007000134908601348006840F001001149E6
:10188000086000200F49083108600E4800680E49C2
:1018900008400C4908600D48091D0860081F0068D1
:1018A00020F48020091F0860002006490C310860E0
:1018B000FFF7B6FD4FF0006001498039086010BDA8
:1018C00088ED00E000380240FFFFF6FE10300024F3
:1018D00030B58BB004460D4601212020FFF7E8FC0F
:1018E00001214804FFF704FD032206212048FFF7E9
:1018F0009DF94020099002208DF8280003208DF8E2
:10190000290000208DF82A0001208DF82B0009A95C
:101910001748FFF743F9ADF818500020ADF81A004A
:101920000794ADF8200006A9124800F057FA60208D
:10193000ADF804000120ADF8060000200390ADF8DA
:10194000100001A90B4800F0FFF90821094800F038
:1019500039FA0121074800F093F90121054800F008
:10196000A1F90021034800F036FA0BB030BD0000A9
:10197000001402400044014030B58BB004460D46CF
:1019800001212020FFF794FC01218804FFF7B0FC1F
:10199000032207212048FFF749F9802009900220FF
:1019A0008DF8280003208DF8290000208DF82A00EA
:1019B00001208DF82B0009A91748FFF7EFF8ADF8C3
:1019C00018500020ADF81A000794ADF8200006A9C1
:1019D000124800F003FA6020ADF804000120ADF8D1
:1019E000060000200390ADF8100001A90B4800F09C
:1019F000ABF90821094800F0E5F90121074800F09A
:101A00003FF90121054800F04DF90021034800F09D
:101A1000E2F90BB030BD0000001402400048014064
:101A200030B58BB004460D4601212020FFF740FC65
:101A300001218020FFF74CFC092208211E48FFF7F6
:101A4000F5F84FF48070099002208DF828000320EB
:101A50008DF8290000208DF82A0001208DF82B0038
:101A600009A91548FFF79AF8ADF818500020ADF80D
:101A70001A000794ADF8200006A9104800F0AEF94E
:101A80006020ADF804000120ADF8060000200390AE
:101A9000ADF8100001A9094800F056F908210748DF
:101AA00000F090F90121054800F0EAF8012103480F
:101AB00000F0F8F80BB030BD00140240001C0040EC
:101AC00010B50121514800F005F900287ED0012110
:101AD0004E4800F0E4F84E480088C0B14D48006818
:101AE0000A280FD300204B490860494801884A481A
:101AF00000F012FAFF214848FEF72CFE002044496E
:101B0000088004E043480068401C4249086043489C
:101B10000088A8B1424800680A280CD33F480188D1
:101B2000404800F057FAFF213E48FEF713FE002020
:101B30003A49088004E03A480068401C3849086087
:101B400039480088A8B1394800680A280CD33648BB
:101B50000188374800F060FAFF213548FEF7FAFDAA
:101B600000203149088004E030480068401C2F49BB
:101B7000086030480088A8B12F4800680A280CD3B4
:101B80002C4801882D4800F0D5FAFF212B48FEF79C
:101B9000E1FD00202749088004E027480068401C38
:101BA0002549086026480088B0B1264800680A2800
:101BB0000DD323480188244800F01EFBFF21224852
:101BC000FEF7C8FD00201E49088005E01DE01D4805
:101BD0000068401C1B4908601C480088A8B11C48CC
:101BE00000680A280CD3194801881A4800F026FB1F
:101BF000FF211848FEF7AEFD00201449088004E0DC
:101C000013480068401C1249086010BD00100040D5
:101C10001400002018000020200100201C000020DB
:101C2000200000201F0200202400002028000020A7
:101C30001E0300202C000020300000201D04002086
:101C400034000020380000201C0500203C0000204B
:101C5000400000201B06002010B50121064800F0BE
:101C600030F8012807D10121034800F018F800F0EE
:101C7000EDFE0249086010BD001400404400002041
:101C800021B1028842F08002028004E002884FF60F
:101C90007F731A4002807047CA4302827047CA436A
:101CA0000282704721B1028842F00102028004E002
:101CB00002884FF6FE731A40028070470146486A58
:101CC000704702460020138A0B400BB1012000E050
:101CD0000020704730B50246002000230024158AFA
:101CE00005EA0103958905EA010413B10CB101204D
:101CF00000E0002030BD1AB183890B43838102E0EC
:101D000083898B43838170470EB501211020FFF733
:101D1000DFFA0920019042F2CF00ADF800006946D9
:101D2000084800F05BF801210648FFF7B5FF0122E3
:101D300011460448FFF7DFFF01210248FFF7B2FF19
:101D40000EBD00000010004070B5002400220023EA
:101D5000058C4FF6FE7635400584028C8388048B13
:101D60004FF68F752C40B51E2C400D882C43751EE8
:101D70002A408D892A434D882A43104DA84202D01B
:101D80000F4DA84213D14FF6F7752A40CD892A434B
:101D90004FF6FB752A408D882A434FF6FF652B408E
:101DA0004FF6FF552B400D8A2B434D8A2B438380E2
:101DB00004838D684563028470BD0000000001400B
:101DC000000401400A460021018B4FF6F7731940C9
:101DD000114301837047416370470000002202886D
:101DE000184B98420ED0184B98420BD0B0F1804F50
:101DF00008D0164B984205D0154B984202D0154B8F
:101E0000984204D14FF68F731A404B881A43124BF5
:101E1000984207D0114B984204D04FF6FF431A4026
:101E20000B891A4302804B68C3620B880385054BFC
:101E3000984202D0044B984201D18B7A0386012349
:101E4000838270470000014000040140000400400C
:101E500000080040000C004000100040001400404A
:101E600010B500F003F8FFF74FFF10BD08B536209E
:101E70008DF8000000208DF8010003208DF802008D
:101E800001208DF803006846FFF7C0F908BD70B562
:101E900004460D46224601210220FFF737FB2A4661
:101EA00002210120FFF732FB70BD70B504460D46DC
:101EB000224602210846FFF729FB2A46012108464F
:101EC000FFF724FB70BD000010B5044600BF802161
:101ED000044800F0B1FA0028F9D02146014800F08A
:101EE00076FB10BD0010014070B504460D4600267B
:101EF00000BF04E02078FFF7E7FF641C761CAE42C9
:101F0000F8DB00BF4021034800F096FA0028F9D022
:101F100070BD0000001001400122244B1A700278AD
:101F2000412A03D10122224B1A703DE00278422A55
:101F300003D102221E4B1A7036E00278432A03D1E5
:101F400004221B4B1A702FE00278442A03D103228B
:101F5000174B1A7028E00278212A03D10522144B6E
:101F60001A7021E00278512A03D10622104B1A7010
:101F70001AE00278252A03D10A220D4B1A7013E0C9
:101F80000278332A03D10722094B1A700CE0027839
:101F9000362A03D10822064B1A7005E00278302A4F
:101FA00002D10922024B1A7070470000570000202E
:101FB0005800002010B5044600BF8021044800F0FE
:101FC0003BFA0028F9D02146014800F000FB10BD83
:101FD0000044004070B504460D46042D17D120780A
:101FE000FF2814D10321204600F0B5FDE178884296
:101FF0000DD1012006498874A078617800EB01209A
:1020000004490880084601880148FFF747FB70BD76
:10201000580700204C0000200122244B1A7002783F
:10202000412A03D10122224B1A703DE00278422A54
:1020300003D102221E4B1A7036E00278432A03D1E4
:1020400004221B4B1A702FE00278442A03D103228A
:10205000174B1A7028E00278212A03D10522144B6D
:102060001A7021E00278512A03D10622104B1A700F
:102070001AE00278252A03D10A220D4B1A7013E0C8
:102080000278332A03D10722094B1A700CE0027838
:10209000362A03D10822064B1A7005E00278302A4E
:1020A00002D10922024B1A7070470000570000202D
:1020B0005800002010B540F22551124800F0C9F92F
:1020C000F0B111480088FF280BDB0F4801880F484A
:1020D00000F030F8FF210D48FEF73CFB00200A49D4
:1020E0000880084800F06EFA0849074A12888854A8
:1020F00005480088401C0449088000200449086005
:1021000010BD0000004C00402C0000201D040020E9
:102110003000002010B5044600BF8021044800F0C4
:102120008BF90028F9D02146014800F050FA10BD83
:10213000004C004070B504460D46042D17D12078A0
:10214000FF2814D10321204600F005FDE1788842E4
:102150000DD1002006498874A078617800EB012039
:1021600004490880084601880148FFF797FA70BDC6
:10217000440700204E00002010B540F225511248BF
:1021800000F067F9F0B111480088FF280BDB0F4819
:1021900001880F4800F030F8FF210D48FEF7DAFA09
:1021A00000200A490880084800F00CFA0849074A4C
:1021B0001288885405480088401C04490880002083
:1021C0000449086010BD00000050004034000020A9
:1021D0001C0500203800002010B5044600BF8021F7
:1021E000044800F029F90028F9D02146014800F000
:1021F000EEF910BD0050004070B504460D46042DA8
:1022000017D12078FF2814D10321204600F0A3FC29
:10221000E17888420DD1012006498874A078617860
:1022200000EB012004490880084601880148FFF7B7
:1022300035FA70BD300700205000002070B504460C
:102240000D46042D17D12078FF2814D103212046F4
:1022500000F081FCE17888420DD1002006498874A5
:10226000A078617800EB01200449088008460188C5
:102270000148FFF713FA70BD1C0700205200002030
:1022800010B540F22551124800F0E3F8F0B11148C2
:102290000088FF280BDB0F4801880F48FFF73CFE42
:1022A000FF210D48FEF756FA00200A490880084829
:1022B00000F088F90849074A1288885405480088C0
:1022C000401C0449088000200449086010BD00003B
:1022D0000010014014000020200100201800002000
:1022E00010B540F22551124800F0B3F8F0B1114892
:1022F0000088FF280BDB0F4801880F48FFF76AFEB4
:10230000FF210D48FEF726FA00200A4908800848F8
:1023100000F058F90849074A12888854054800888F
:10232000401C0449088000200449086010BD0000DA
:10233000004400401C0000201F020020200000205C
:1023400010B540F22551124800F083F8F0B1114861
:102350000088FF280BDB0F4801880F48FFF75CFE61
:10236000FF210D48FEF7F6F900200A4908800848C9
:1023700000F028F90849074A12888854054800885F
:10238000401C0449088000200449086010BD00007A
:1023900000480040240000201E03002028000020E8
:1023A00010B540F22551124800F053F8F0B1114831
:1023B0000088FF280BDB0F4801880F48FFF73EFF1E
:1023C000FF210D48FEF7C6F900200A490880084899
:1023D00000F0F8F80849074A128888540548008830
:1023E000401C0449088000200449086010BD00001A
:1023F000001401403C0000201B060020400000208B
:1024000010B5044600BF8021044800F015F80028EC
:10241000F9D02146014800F0DAF810BD001401405F
:1024200021B1828942F40052828104E082894DF612
:10243000FF731A408281704702460020B1F5007F89
:1024400000D100BF13880B400BB1012000E0002039
:10245000704770B50246002400230025002040F696
:102460006A16B14200D100BFC1F3421501F01F034B
:10247000012606FA03F3012D02D19689334006E0C6
:10248000022D02D1168A334001E0968A33400C12A5
:10249000012606FA04F41688344013B10CB1012069
:1024A00000E0002070BDF0B50346002400260025A2
:1024B000002040F66A17B94200D100BF1846C1F3A8
:1024C000421401F01F06012707FA06F5012C01D17D
:1024D0000C3004E0022C01D1103000E014301AB1AD
:1024E00007682F43076002E00768AF430760F0BD4D
:1024F0002DE9FF4705460E460024A14600BFA04631
:10250000B08900B100BF2C8A24F44054F088044301
:102510002C82AC8941F20C608443B0883189084335
:10252000718908430443AC81AC8A24F44074B089B7
:102530000443AC826846FEF7FBFE2048854202D089
:102540001F48854202D1DDF80C9001E0DDF80890CB
:10255000A88900F4004040B109EBC90000EB091064
:1025600031684900B0FBF1F707E009EBC90000EB67
:10257000091031688900B0FBF1F76420B7FBF0F077
:1025800004012009642101FB1078A88900F40040AF
:1025900040B1322000EBC800B0FBF1F000F00700C2
:1025A000044308E0322000EB08106421B0FBF1F096
:1025B00000F00F0004432C81BDE8FF8700100140AC
:1025C0000014014001468888C0F308007047C1F339
:1025D000080282807047000010B588B004460121CF
:1025E0000846FEF765FE01211020FEF781FE072256
:1025F00009212248FEF71AFB07220A211F48FEF78D
:1026000015FB4FF4C060069002208DF81C008DF879
:102610001D0000208DF81E0001208DF81F0006A966
:102620001648FEF7BBFA02940020ADF80C00ADF896
:102630000E00ADF81000ADF814000C20ADF812003B
:1026400002A90F48FFF754FF012240F225510C4820
:10265000FFF729FF25208DF8040007208DF80500DD
:102660008DF8060001208DF8070001A8FEF7CEFDC9
:1026700001210348FFF7D4FE08B010BD000002405E
:102680000010014010B588B0044601210846FEF74D
:102690000FFE01214804FEF71BFE072202212248FB
:1026A000FEF7C4FA072203211F48FEF7BFFA0C20E9
:1026B000069002208DF81C008DF81D0000208DF87A
:1026C0001E0001208DF81F0006A91748FEF766FAC4
:1026D00002940020ADF80C00ADF80E00ADF810002B
:1026E000ADF814000C20ADF8120002A90F48FFF756
:1026F000FFFE012240F225510C48FFF7D4FE2620B0
:102700008DF8040000208DF8050007208DF80600E4
:1027100001208DF8070001A8FEF778FD012103488C
:10272000FFF77EFE08B010BD0000024000440040EC
:1027300010B588B0044601210220FEF7B9FD012141
:102740008804FEF7C5FD07220A212248FEF76EFA2B
:1027500007220B211F48FEF769FA4FF440600690EC
:1027600002208DF81C008DF81D0000208DF81E0041
:1027700001208DF81F0006A91648FEF70FFA0294F3
:102780000020ADF80C00ADF80E00ADF81000ADF86B
:1027900014000C20ADF8120002A90F48FFF7A8FEA4
:1027A000012240F225510C48FFF77DFE27208DF8CD
:1027B000040007208DF805008DF8060001208DF833
:1027C000070001A8FEF722FD01210348FFF728FEBC
:1027D00008B010BD000402400048004010B588B0A9
:1027E000044601210420FEF763FD0121C804FEF721
:1027F0006FFD08220A212348FEF718FA08220B2150
:102800002048FEF713FA4FF44060069002208DF83E
:102810001C008DF81D0000208DF81E0001208DF891
:102820001F0006A91748FEF7B9F902940020ADF879
:102830000C00ADF80E00ADF81000ADF814000C203F
:10284000ADF8120002A91048FFF752FE012240F233
:1028500025510D48FFF727FE34208DF80400002095
:102860008DF8050007208DF8060001208DF807007F
:1028700001A8FEF7CBFC01210348FFF7D1FD08B00A
:1028800010BD000000080240004C004010B588B0A8
:10289000044601210C20FEF70BFD01210805FEF77F
:1028A00017FD082202212548FEF7C0F908220C2155
:1028B0002348FEF7BBF941F20400069002208DF890
:1028C0001C008DF81D0000208DF81E0001208DF8E1
:1028D0001F0006A91A48FEF761F906A91748FEF776
:1028E0005DF902940020ADF80C00ADF80E00ADF8D3
:1028F0001000ADF814000C20ADF8120002A9114828
:10290000FFF7F6FD012240F225510E48FFF7CBFDFF
:1029100035208DF8040000208DF8050007208DF883
:10292000060001208DF8070001A8FEF76FFC0121C9
:102930000448FFF775FD08B010BD0000000C024010
:10294000000802400050004010B588B00446012144
:102950000420FEF7ADFC01212020FEF7C9FC08226F
:1029600006212248FEF762F9082207211F48FEF7D8
:102970005DF9C020069002208DF81C008DF81D0026
:1029800000208DF81E0001208DF81F0006A91748B1
:10299000FEF704F902940020ADF80C00ADF80E002B
:1029A000ADF81000ADF814000C20ADF8120002A92B
:1029B0000F48FFF79DFD012240F225510C48FFF71B
:1029C00072FD47208DF8040000208DF805000720D7
:1029D0008DF8060001208DF8070001A8FEF716FC0F
:1029E00001210348FFF71CFD08B010BD000802409C
:1029F000001401401DE00120FFF7DCFA0D48FEF74E
:102A0000E1FD142001F030FA0120FFF783FB1420D0
:102A100001F02AFA0120FFF7DFFB0748FEF7D2FD9D
:102A2000142001F021FA0120FFF7EAFC142001F044
:102A30001BFAE0E7580700203007002000BFFEE740
:102A400003E04FF47A7001F00FFAFAE710B5FEF7E1
:102A500015F9314880ED000A304890ED000A304801
:102A600080ED000A2F4890ED000A2B48D0ED000AB7
:102A700030EE600A294880ED000A2B4890ED000AEC
:102A80002648D0ED000A30EE200A274880ED000AE3
:102A9000264890ED000A2148D0ED000A20EE200AD9
:102AA0002348D0ED000A204890ED001A00EE810A7C
:102AB0001A48D0ED000A1A4890ED001A70EEC10ACB
:102AC0001C4890ED001A01EE200A1B4880ED000A18
:102AD00090ED000ADFED190AB4EEE00AF1EE10FA0B
:102AE00004DD9FED160A80ED000A0DE0124890ED1E
:102AF000000ADFED130AB4EEE00AF1EE10FA03D299
:102B00009FED0F0A80ED000A0B4890ED000ABDEE24
:102B1000C00A10EE100A10BD8000002094000020B2
:102B2000980000207C0000209C00002088000020ED
:102B30008C00002090000020840000200000A042B3
:102B40000000A0C230380A2801D2012070470020BE
:102B5000704700BF704710B502460023002003E015
:102B6000145C1C44E3B2401C8842F9DB184610BDDB
:102B70000EB501210846FEF7ABFB4FF0FF30019088
:102B80005320ADF800000020ADF80800ADF80200B9
:102B900069464FF08040FFF721F901218807FFF7D0
:102BA00081F80EBD70B504464FF08040FFF786F8FF
:102BB000051900BF4FF08040FFF780F8A842F9D315
:102BC00070BD0000012101200B4A12680AB10020EB
:102BD00011E00A4A12680AB100200CE0084A1268A3
:102BE0000AB1002007E0074A1368074A1268521E1C
:102BF000934200D10220704730080020C40000201A
:102C0000C000002068080020B000002070B5044615
:102C10000D4600BF80210548FFF70EFC0028F9D0C3
:102C2000A1B20248FFF7D3FC204670BD001001405E
:102C300010B502460023002003E0145C6340441CEE
:102C4000A0B28842F9DB184610BD00002DE9F04F14
:102C500095B03F215020FEF72DF80646701C10B9A4
:102C600015B0BDE8F08F16F5004F02DBB6F5004F4A
:102C700000DBF5E744F2506106FB01F0C11700EB01
:102C80005141CD130027002D01DA01276D42642048
:102C900095FBF0F895FBF0F100FB115937B14B466D
:102CA000424616A10DA8FDF757FB05E04B464246EC
:102CB00016A10DA8FDF750FB0DA8FDF7DFFC1FFACC
:102CC00080FB59460DA8FFF7B3FF824653460DAA75
:102CD00012A101A8FDF740FB0446002C0BDD302CAF
:102CE00009DAA1B2104A01A800F0EEFE18B1A1B2B3
:102CF00001A8FFF7F9F800BFB2E70000494D552CD5
:102D00002D256C642E2530326C640000494D552C05
:102D1000256C642E2530326C640000002425732C51
:102D2000253032580D0A0000A08601001CB54FF472
:102D30004070FEF7A7FAFFF71BFF4FF4E130FFF7F3
:102D40004BFC4FF4E130FFF79DFC4FF4E130FFF70F
:102D5000EFFC4FF4E130FFF741FD4FF4E130FFF7B6
:102D600095FD4FF4E130FFF7EFFDFFF779F8FEF73F
:102D70006AF9FEF727F8FEF7FDF9FEF74BFC002095
:102D8000012103468022CDE9001007A10B4801F084
:102D90002FFB012804D00AA0FDF7D2FA01201CBDA8
:102DA00001F024F90020FAE7637265617465206F11
:102DB00074686572207461736B000000A1160008CE
:102DC0007374617274207461736B206372656174D3
:102DD0006572206572726F72200D0A001CB50121A8
:102DE0000846FEF765FA8020009001208DF8040067
:102DF00003208DF8050000208DF8060001208DF8D5
:102E0000070069460148FDF7C9FE1CBD00000240ED
:102E10001CB501210420FEF74BFA10200090012080
:102E20008DF8040000208DF8060003208DF80500C1
:102E300001208DF8070069460148FDF7AFFE1CBD73
:102E4000000802401CB501210846FEF731FA1020A7
:102E5000009001208DF8040000208DF8060003206A
:102E60008DF8050001208DF8070069460148FDF73F
:102E700095FE1CBD000002402DE9F04705460E46B8
:102E8000254807682548D0F800802548D0F80090EC
:102E900000202449096881F84A0022480068001D82
:102EA00000F044FE681CE0B9DEB100BF1E4948686E
:102EB0001C49096888601B4982680968CA60194909
:102EC0000968091D8268516016490968091D8160F9
:102ED000154A144909684A6111460968491C11607C
:102EE00018E07C190F4800684460BC4206D20D48C7
:102EF0000168091D484600F080FE0BE009480168A2
:102F0000091D404600F079FE08480068844201D25D
:102F100006480460BDE8F087B4000020A40000204B
:102F2000A8000020A000002068080020D000002099
:102F300010B5044600F088FE33480068401C324952
:102F400008603248006840B93048046008460068AC
:102F500001280DD100F0A6FA0AE02D48006838B922
:102F60002A480068C06AE16A884201D8274804609C
:102F700028480068401C2749086000BF00BF264958
:102F8000E06A0968884202D92349E06A086000BF04
:102F900000BFE16AC1EBC101204A02EB8101486830
:102FA000A0608268E260211D826851608160E16AF0
:102FB000C1EBC101194A02EB81026261E16AC1EB16
:102FC000C101164A52F82110491CE26AC2EBC20242
:102FD000124B43F8221000BF00BF00F047FE0C4820
:102FE000006878B100BF09480068C06AE16A884299
:102FF00007D24FF080500A490860BFF34F8FBFF3EC
:103000006F8F00BF10BD0000B0000020A0000020A6
:10301000BC000020CC000020B80000206C0700207D
:1030200004ED00E008B500F00FFE0E480068A8B9F6
:103030000D4800F0CFFD0D4800F0CCFD0A480C49CA
:1030400008600A480B49086000200B4B0B4A10210E
:1030500000900A2001F09CF80249086000F006FE8A
:1030600008BD0000E80000201C0D0020380D0020E5
:10307000E0000020E4000020540D0020B00D0020EE
:1030800010B516E000F0E0FD0C48C068C468201DD3
:1030900000F04CFD0A480068401E094908600948D4
:1030A0000068401E0749086000F0E0FD204600F07F
:1030B000F8F8044800680028E4D110BD4C0800204E
:1030C000B0000020AC00002070B504460D46206D15
:1030D00070B1216DE0680144E160D4E902108842DA
:1030E00001D32168E1602846226DE168FDF7E5FA29
:1030F00070BD2DE9F04104460F4615464FF000081B
:10310000A66C206D48B9206800282CD1A06801F079
:1031100083FA80460020A06025E07DB93946226D03
:103120006068FDF7CAFA216D606808446060D4E900
:103130000101884217D32068606014E03946226D8F
:10314000E068FDF7BAFA216DE068411AE160216894
:10315000E068884203D2216DA068411AE160022D27
:1031600001D106B1761E701CA0644046BDE8F08116
:10317000F0B587B001260027002508E01AA0405DC1
:1031800006A9485506A8405D00B902E06D1C042D53
:10319000F4DB00BF002421E0154F002005900490CF
:1031A00003AA04A905A800F0DBFC0022DDE9041055
:1031B0001346CDE90021029006A93846039A01F092
:1031C00033F90C4941F82400084650F8240008B1AE
:1031D000012600E0002606B902E0641C012CDBDBBE
:1031E00000BF304607B0F0BD49444C450000000028
:1031F000A9330008D40000202DE9FF4F85B0074611
:1032000088469146DDE9145BDDE912A6ADB1A6B1B1
:103210002C464C212046FDF7BFFA2663022084F895
:1032200049000020CDE900ABCDE902404A464146C5
:103230003846089B00F0F3F800E00024204609B06F
:10324000BDE8F08F2DE9FF5F074688461646994690
:10325000DDE90EABB00000F0A1FB054675B14C20D6
:1032600000F09CFB04462CB14C212046FDF794FA5B
:10327000256304E0284600F009FD00E0002464B165
:10328000002084F849004B4632464146CDE900AB68
:10329000CDE90240384600F0C2F8204604B0BDE84F
:1032A000F09F10B5044694F8490030B9206B00F047
:1032B000EDFC204600F0EAFC06E094F84900012805
:1032C00002D1204600F0E2FC10BD000000210C4AB3
:1032D000126802B101210B4A1268D26A0AB10020B9
:1032E0000DE0094A1268012A01D9002007E009B15E
:1032F000002004E0054A1068054A1268801A7047E9
:10330000B8000020A00000206C070020D0000020A2
:10331000B40000200146084A126812680AB9012266
:1033200000E000220A600A6822B9034A1268D268E3
:10333000106800E000207047E000002030B54FF436
:10334000A033144800F007042CB1C01D20F0070082
:10335000104C041B1B1B104C206000240E4D6C6095
:10336000C218083A22F007020C4C226000240B4DD0
:103370002D686C60094D2D682C600146541A4C6014
:10338000064C24680C60064D4C682C60054D4C685A
:103390002C6030BD500E0020040100200C010020E4
:1033A000140100201001002000BFFFF769FE0F4844
:1033B0000068012807D94FF080500D490860BFF31D
:1033C0004F8FBFF36F8FFFF781FF0446022C0BD3A3
:1033D00000F058FEFFF77AFF0446022C02D3204685
:1033E00000F07AFC01F0F8F9DFE700006C0700203C
:1033F00004ED00E02DE9F04106460D4617469846DB
:10340000069C0DB9246000E02760E6642565012173
:10341000204600F0DDFE0020A065BDE8F0812DE92A
:10342000F05F81460E4690469A460A9F0C9C4FEAF2
:103430008801A522206BFDF785F9A8F10100216B19
:1034400001EB800B2BF0070B7EB1002507E0715DCF
:1034500004F134004155705D00B902E06D1C042D8B
:10346000F5D300BF002137200155052F00D30427D5
:10347000E762A763201D00F0BDFB04F1180000F017
:10348000B9FB2461C7F10500A06164625246494658
:10349000584600F003FB20600B9808B10B980460BD
:1034A000BDE8F09F10B5002407E0C4EBC4010F4A4B
:1034B00002EB810000F08EFB641C052CF5D30C4858
:1034C00000F088FB0B4800F085FB0B4800F082FB06
:1034D0000A4800F07FFB0A4800F07CFB04480949D9
:1034E000086004480849086010BD00006C0700200F
:1034F000F807002014080020300800204C080020A5
:1035000068080020A4000020A800002010B5014693
:10351000164800E0006803688B42FBD3024643680C
:1035200013448B4204D143684C68234443600146F2
:103530000A464B6813440468A34211D10C4C03683B
:103540002468A34208D04B680468646823444B6035
:1035500003681B680B6005E0054B1B680B6001E00E
:1035600003680B60884200D0016010BD0401002098
:103570000C0100202DE9F04104460D4616461F4679
:103580004FF0000865602461B5420CD8F01BA169BA
:10359000884202D34FF0010811E0211D094800685C
:1035A00000F02BFB0BE0BE4204D2BD4202D34FF031
:1035B000010804E0211D0448006800F01EFB40469D
:1035C000BDE8F081E4000020E000002070B5054671
:1035D00000F03AFBA86C08B9012400E0002400F0D8
:1035E00045FB204670BDF1B50098846D0026A06CA7
:1035F000E16C884222D294F9555000226946204657
:10360000FFF777FD0646681C60B9E06A08B901203B
:1036100000E0002088B904F12C0001F04DF860B101
:1036200001260AE000BF00F095FA0746BD4203D22A
:10363000681C40B284F8550000BF00BF3046F8BD9A
:1036400070B505460E460E480068C068C468201D67
:1036500000F06CFA94F8240000F0040028B132461F
:103660002946204600F0D6F805E094F8240000F042
:10367000FE0084F824002046216A884770BD0000BF
:10368000E000002070B586B0002002900390049006
:10369000059077E00298002805DA03AED6E900200D
:1036A000B168904700BF029800286BDB049C6069FA
:1036B00008B9012000E0002010B9201D00F036FA02
:1036C00001A800F0D3F8054602980A2858D2DFE88E
:1036D00000F05705072E364706082F3700BF00BFFA
:1036E00000BF94F8240040F0010084F824000398FF
:1036F000A269811803462A462046FFF73BFFA8B17E
:1037000094F8240000F0040038B10398A2698118ED
:103710002A46204600F07EF805E094F8240000F0E8
:10372000FE0084F824002046216A884729E000BF73
:1037300094F8240000F0FE0084F8240021E000BF8B
:1037400094F8240040F0010084F824000398A0615C
:10375000A06941192B462A462046FFF70BFF10E0CF
:1037600094F8240000F0020018B9204600F08EFA08
:1037700005E094F8240000F0FE0084F8240000E046
:1037800000BF00BF002202A90448006800F070FDDD
:1037900000287FF47FAF06B070BD0000E800002075
:1037A000F8B505460C4600F06DFC684600F05EF882
:1037B0000646009820BB44B9B54206D801F00CF883
:1037C00031462846FFF73CFF1CE03CB10E4800683C
:1037D000006808B9012000E000200446A91B224629
:1037E0000A48006800F01AFB00F0F6FF50B94FF0ED
:1037F000805007490860BFF34F8FBFF36F8F01E020
:1038000000F0EAFFF8BD0000E4000020E80000201E
:1038100004ED00E070B504460D46164604E0A069CC
:1038200005442046216A8847A06941192B46324643
:103830002046FFF79FFE0028F1D170BD09480068BF
:10384000006808B9012000E0002020B14FF0FF30EF
:103850000549086005E003480068C068006802493F
:1038600008607047A4000020D000002070B5044616
:1038700000F0FAFD054607480068854204D200F0D2
:103880000BF80120206001E0002020600148056065
:10389000284670BDF000002070B508E00D480068B3
:1038A000C06804684FF0FF312046FFF7C9FE0948A1
:1038B0000068006808B9012000E000200028EDD071
:1038C0000448056804480068024908600248056029
:1038D00070BD0000E0000020E400002000BF502088
:1038E00080F31188BFF34F8FBFF36F8F00BF00BF0E
:1038F000FEE708B500BF6846FFF70CFD044620460A
:103900000099FFF74DFFFFF7BDFEF4E770B50446E1
:1039100000F09AF994F9555019E0A06D30B12046A5
:10392000FFF761FE88B100F023FB0EE0E06A08B902
:10393000012000E0002038B904F12C0000F0BCFEAA
:1039400018B100F015FB00E003E0681E45B2002D41
:10395000E3DC00BFFF2084F8550000F087F900F099
:1039600073F994F9545010E0206908B9012000E07F
:10397000002048B904F1100000F09EFE08B100F0EC
:10398000F7FA681E45B200E001E0002DECDC00BF54
:10399000FF2084F8540000F069F970BD2DE9F0476C
:1039A00004464FF00009DCB114F1090F01D90120E0
:1039B00000E0002098B9083404F0070080B104F05A
:1039C0000700C0F10808C8F1FF30A04201D2012071
:1039D00000E0002008B9444402E0002400E0002494
:1039E00000F050FB2848006808B9FFF7A7FC012049
:1039F00000EBE470002841D0002C3FD02348006841
:103A000084423BD8224E3046056801E02E462D68A0
:103A10006868A04202D228680028F7D11A480068D6
:103A200085422BD0306800F108092868306068684A
:103A3000001B102807D92F196868001B78606C607C
:103A4000306838603760114968680968081A0F499A
:103A50000860084600680F490968884203D20B488D
:103A600000680C490860686840F000406860002009
:103A7000286009480068401C0749086000F0ACFE57
:103A80004846BDE8F08700000C010020100100202E
:103A9000040100201401002018010020001F4FF035
:103AA00080730360001F21F001030360001F054BBA
:103AB000036014380260001F6FF0020303602038B7
:103AC00070470000DD3800082DE9F04706460F4634
:103AD0001446002515E0A14607E0B9F10000A9F160
:103AE000010902D1401EBDE8F08780210E48FEF793
:103AF000A3FC0028F1D0715D0B48FEF768FD681C3F
:103B000085B2BD42E7DBA04606E0B8F10000A8F1AF
:103B1000010801D1801EE6E740210348FEF78CFC36
:103B20000028F2D00020DEE70010014001460A69BB
:103B3000D1E901309860D1E90103586050688842AA
:103B400001D188685060002008611068401E106034
:103B5000106870470148006870470000B0000020FE
:103B6000034B0360034B0B6080231360704700001E
:103B700084080020D0080020034B0360034B0B6037
:103B80008023136070470000D00A00201C0B002027
:103B90000C480D490860084600686FF07F41B1FB92
:103BA000F0F00A4908605E200949086000204FF0E3
:103BB000E021086188610348401E486107200861D0
:103BC0007047000040900200F8000020FC00002038
:103BD0000001002000F1080141604FF0FF318160D9
:103BE00000F10801C160016100224261826100218F
:103BF0000160704700210161704710B502460B68F3
:103C00005C1C0CB9106907E002F1080000E0406894
:103C1000446824689C42FAD944684C604C68A160AE
:103C2000886041600A611468641C146010BD4268B9
:103C30004A6093688B60936859609160086103687B
:103C40005B1C03607047000000BF502080F31188A8
:103C5000BFF34F8FBFF36F8F00BF03480068401C56
:103C60000149086070470000F40000200648006821
:103C7000401E054908600846006820B9002080F30E
:103C8000118800BF00BF7047F400002070B50646E1
:103C90003546E6B1083D2C466068C00FB8B12068D3
:103CA000A8B9606820F00040606000F0EBF90849B6
:103CB000606809680844064908602046FFF726FC4A
:103CC00004480068401C0349086000F085FD70BD91
:103CD000100100201C0100202DE9F04704464B484C
:103CE0000068844201D94948046872B6BFF34F8F17
:103CF000BFF36F8FFEF766FF08B962B683E0062058
:103D00004FF0E0210861084687690FB9404807680D
:103D1000601E3F49096801FB00753E48006800F0DD
:103D2000806030B14FF000703A4908603848006850
:103D30002D1A39480068854202D9374800682D1A83
:103D40004FF0E020456100204FF0E02188610846F7
:103D5000006940F001000861A146B9F1000404D0F7
:103D6000BFF34F8F30BFBFF36F8F62B6BFF34F8F7C
:103D7000BFF36F8F72B6BFF34F8FBFF36F8F062005
:103D80004FF0E02108610846006900F48030B8B1C6
:103D90001F490968491E4FF0E0229269AA1A881A41
:103DA0001D490968884203D919490968884202D91E
:103DB00017490968481E4FF0E0214861661E14E06B
:103DC0004FF0E0208769124800686043A0EB0708C5
:103DD0000F480068B8FBF0F6701C0D4909684843AD
:103DE000A0EB08004FF0E021486100204FF0E021F7
:103DF00088610720086106480068401E4861304617
:103E000000F020F962B6BDE8F0870000FC00002059
:103E1000F800002004ED00E0000100202DE9F04151
:103E200005460E4617462C46FFF70EFF94F9540040
:103E3000401C10B9002084F8540094F95500401C2F
:103E400010B9002084F85500FFF710FFA06C28B9C6
:103E50003A46314604F12C0000F0A0F82046FFF766
:103E600055FDBDE8F081000070B50446002544B161
:103E700000F008F900212046FEF7FEFF00F0ACFC40
:103E800005463DB94FF0805003490860BFF34F8F9E
:103E9000BFF36F8F70BD000004ED00E02DE9F0412D
:103EA00005460026FFF7D0FE15B92448006800E05B
:103EB00028460446201DFFF739FEA06A18B104F118
:103EC0001800FFF733FE1E480068401C1C490860BC
:103ED0001A480068844201D1012000E00020074612
:103EE0001848006858B157B1211D1748FFF79FFEC9
:103EF00016480068401C15490860012606E0144871
:103F00000068401E12490860FFF798FCFFF7AEFEFC
:103F1000012E02D02046FFF7C4F90A48006858B1C4
:103F200006480068844207D14FF080500949086074
:103F3000BFF34F8FBFF36F8FBDE8F081A00000206B
:103F4000CC000020BC0000204C080020AC00002069
:103F5000B000002004ED00E0034909680160034956
:103F60000968416070470000C8000020B4000020CC
:103F70000120014908607047C400002070B5054663
:103F80000C460548016818312846FFF736FE012126
:103F90002046FEF771FF70BDA000002070B50446FA
:103FA0000E46154600BF60680F490968C8610E4992
:103FB000826809680A620C49096818318268516090
:103FC0000949096818318160074909688C622168CC
:103FD000491C216000BF0DB14FF0FF362946304625
:103FE000FEF74AFF70BD0000A000002010B5FFF7EB
:103FF000BFF80446012C02D100F0AEFC0446012CAF
:1040000014D100BF502080F31188BFF34F8FBFF34E
:104010006F8F00BF4FF0FF3006490860012006494E
:10402000086000200549086000F074F80448006842
:1040300010BD0000D0000020BC000020B400002013
:10404000D800002070B504460B48006805190B48DD
:104050000068854209D1FFF7F7FD09480068401C58
:1040600007490860FFF702FE641E03480068204409
:104070000149086070BD0000B4000020D00000209D
:10408000C000002002480068401C014908607047D9
:10409000DC0000201A48006818B1012019490860A6
:1040A0002CE000201749086000BF1748016800E0B5
:1040B000491EC1EBC100154A52F8200008B9012081
:1040C00000E000200028F3D100BFC1EBC1020F4B7C
:1040D00003EB820042685268426000F108024368C4
:1040E000934201D1C26842604268D268084B1A60AC
:1040F00000BF0548016000BF184600687047000017
:10410000DC000020C4000020B80000206C07002064
:10411000A000002010B50E48006840F47F000C4954
:1041200008600846006840F07F400860FFF730FDF7
:10413000002008490860FCF7A5F80748006840F02F
:10414000404005490860FCF789F8002010BD0000D8
:1041500020ED00E0F400002034EF00E010B500BFD7
:10416000502080F31188BFF34F8FBFF36F8F00BFD4
:1041700000F080F918B14FF080500449086000BF8A
:10418000002080F3118800BF10BD000004ED00E0A6
:104190002DE9F84380460D4616461C46DDF8209072
:1041A0000027B8F1000F0FD074B106B165B106B9A0
:1041B00055B92746012087F856004B463246294616
:1041C00040460097FFF716F93846BDE8F88300002F
:1041D0002DE9F04105460E4601272C46002C41D022
:1041E000E06C00283ED0B91EE06CB1FBF0F0216D10
:1041F000884237D3FFF728FDD4E91312206801FB6A
:104200000200A0600020A06420686060E06C401E96
:10421000226D216800FB0211E160FF2084F8540048
:1042200084F855009EB9206908B9012000E00020FB
:10423000A8B904F1100000F03FFA80B14FF08050AF
:104240000A490860BFF34F8FBFF36F8F07E004F197
:104250001000FFF7BFFC04F12C00FFF7BBFCFFF7D9
:1042600005FD00E000273846BDE8F08104ED00E0E0
:104270002DE9F74183B005460F464FF000082C4664
:1042800000BFFFF7E1FCA66CF6B139462046FEF709
:104290001BFF701EA064206908B9012000E0002007
:1042A00060B904F1100000F007FA38B14FF0805007
:1042B0002F490860BFF34F8FBFF36F8FFFF7D6FC16
:1042C000012006B0BDE8F081059818B9FFF7CEFCD3
:1042D0000020F6E7B8F1000F04D101A8FFF73CFE7B
:1042E0004FF00108FFF7C2FCFFF7CCFEFFF7ACFC74
:1042F00094F95400401C10B9002084F8540094F93B
:104300005500401C10B9002084F85500FFF7AEFCA2
:1043100005A901A800F02EF8F0B92046FFF756F9DC
:10432000A0B104F12C000599FFF728FE2046FFF705
:10433000EDFA00F051FA0028A3D14FF080500C495B
:104340000860BFF34F8FBFF36F8F9AE72046FFF7E8
:10435000DDFA00F041FA94E72046FFF7D7FA00F0C3
:104360003BFA2046FFF732F900288AD00020A8E760
:1043700004ED00E070B506460C46FFF765FC1948F1
:1043800002687068131A1848006890F84A0030B143
:1043900000201549096881F84A0001251EE02068BF
:1043A000401C08B9002519E01049306809688842A6
:1043B00006D07068904203D80125002020600DE0EF
:1043C0002068984207D92068C01A20603046FFF75D
:1043D000C3FD002502E0002020600125FFF746FC18
:1043E000284670BDB4000020A0000020C8000020B6
:1043F0002DE9FC5F06460F4690469946DDE90CAB79
:104400004B46424639463046CDE900ABFEF71AFF2F
:10441000054625B12846FEF78BFD012401E04FF04B
:10442000FF342046BDE8FC9F2DE9F04F85B00546DE
:104430000E4617469846DDE90FABDDF838900020B0
:10444000049004A843463A4631468DE8000E039096
:104450002846FEF7D1FE044614B12046FEF768FD5B
:10446000049805B0BDE8F08F014908687047000066
:10447000B40000202DE9F04100275C4800680028C6
:104480007ED15B480068451C5948056095B900BF5E
:104490005848D0F800805848006856490860564887
:1044A000C0F8008055480068401C54490860FFF778
:1044B000C5F900BF5248006885427ED300BF4D4811
:1044C0000068006808B9012000E0002020B14FF02A
:1044D000FF304B4908606FE046480068C068C46818
:1044E0006668B54202D24648066065E000BF606972
:1044F000D4E902128A60D4E902214A60211D42688F
:104500008A4201D1E1684160002262610168491E6E
:10451000016000BFA06AA0B100BFA06AD4E9071281
:104520008A60D4E907214A6004F1180142688A428E
:1045300001D1216A41600022A2620168491E016026
:1045400000BF00BF00BF2F49E06A0968884202D956
:104550002C49E06A086000BF00BFE16AC1EBC101FD
:10456000294A02EB81014868A0608268E260211D4F
:10457000826851608160E16AC1EBC101224A00E0BA
:104580002BE002EB81026261E16AC1EBC1011E4ACC
:1045900052F82110491CE26AC2EBC2021A4B43F8DE
:1045A000221000BF00BF1949E06A0968C96A884241
:1045B00085D9012783E700E000BF14480068C06A7E
:1045C000C0EBC000104951F82000012800D9012794
:1045D0000F48006800B1012704E00E480068401C45
:1045E0000C4908603846BDE8F0810000DC0000207E
:1045F000B4000020A4000020A8000020C800002073
:10460000D0000020B80000206C070020A00000208F
:10461000C4000020C000002070B505462C460026CE
:10462000002D43D0E06B401EE063A16BE06A88423E
:104630003CD0E06B002839D1201DFFF777FAA06B42
:10464000E062E06AC0F10500A06100BF00BF184948
:10465000E06A0968884202D91549E06A086000BF2B
:1046600000BFE16AC1EBC101124A02EB8101486857
:10467000A0608268E260211D826851608160E16A09
:10468000C1EBC1010B4A02EB81026261E16AC1EB3D
:10469000C101084A52F82110491CE26AC2EBC20269
:1046A000044B43F8221000BF00BF0126304670BD06
:1046B000B80000206C07002070B50646F068C4689A
:1046C00000BFA06AD4E907128A60D4E907214A60D2
:1046D00004F1180142688A4201D1216A4160002236
:1046E000A2620168491E016000BF354800680028C9
:1046F00046D100BF6069D4E902128A60D4E9022180
:104700004A60211D42688A4201D1E168416000226D
:1047100062610168491E016000BF00BF00BF2949F6
:10472000E06A0968884202D92649E06A086000BF49
:1047300000BFE16AC1EBC101234A02EB8101486875
:10474000A0608268E260211D826851608160E16A38
:10475000C1EBC1011C4A02EB81026261E16AC1EB5B
:10476000C101194A52F82110491CE26AC2EBC20287
:10477000154B43F8221000BF00BFFFF75FF811E0B0
:1047800000BF12494868E0618268226204F11801A2
:104790008268516081600D4AA26211460968491C15
:1047A000116000BF0A49E06A0968C96A884204D9F1
:1047B000012501200749086000E00025284670BD5A
:1047C000DC000020B80000206C070020300800202A
:1047D000A0000020C40000202DE9F04100240027A3
:1047E000FFF732FA002553480068401E514908601F
:1047F0000846006800286FD14F48006800286BD039
:1048000065E04E48C068C46800BFA06AD4E90712DA
:104810008A60D4E907214A6004F1180142688A429B
:1048200001D1216A41600022A2620168491E016033
:1048300000BF00BF6069D4E902128A60D4E9022196
:104840004A60211D42688A4201D1E168416000222C
:1048500062610168491E016000BF00BF00BF3849A6
:10486000E06A0968884202D93549E06A086000BFF9
:1048700000BFE16AC1EBC101324A02EB8101486825
:10488000A0608268E260211D826851608160E16AF7
:10489000C1EBC1012B4A02EB81026261E16AC1EB0B
:1048A000C101284A52F82110491CE26AC2EBC20237
:1048B000244B43F8221000BF00BF2349E06A096877
:1048C000C96A884203D90120204941F825001B48C4
:1048D000006810B9012001E026E00020002890D0F7
:1048E0000CB1FEF7ABFF1A4806686EB100BFFFF7C8
:1048F000C1FD18B10120154941F82500761E002E92
:10490000F5D1002012490860104850F8250058B130
:10491000012700BF0C48006838070E490860BFF344
:104920004F8FBFF36F8F00BFFFF7A0F93846BDE888
:10493000F0810000DC000020B000002030080020E2
:10494000B80000206C070020A0000020C400002058
:10495000C000002004ED00E010B586B00024FEF792
:1049600061FB10480068D0B100200590049003AAB4
:1049700004A905A8FFF700F90422DDE904100023CB
:10498000CDE90021029008A10948039AFFF74CFDE8
:10499000084908600846006800B1012400BF2046AD
:1049A00006B010BDE8000020546D722053766300FD
:1049B000F3380008EC0000204FF04070E1EE100AE0
:1049C000704700001C07002030070020440700202B
:1049D00058070020303132333435363738394142C8
:1049E0004344454640305800303132333435363751
:1049F00038396162636465664030780004000008FD
:104A00000000000000000002000100001000000093
:104A1000304A00080000002020010000C401000806
:104A2000504B000820010020906D0100E0010008BB
:104A30000000000001020304010203040607080944
:104A40000000000000000000000000000000000066
:104A50000000000000000000000000000000000056
:104A60000000000000000000000000000000000046
:104A70000000000000000000000000000000000036
:104A800000000000646464000000000000000000FA
:104A90000000000000000000000000000000000016
:104AA0000000000000000000000000000000000006
:104AB00000000000000000000000803F6F12833AF9
:104AC000CDCCCC3D00000000000000000000000044
:104AD00000000000000000000000000000000000D6
:104AE00000000000000000000000000000000000C6
:104AF00000000000000000000000000000000000B6
:104B000000000000000000000400000000000000A1
:104B10000000000000000000000000000000000095
:104B200000000000AAAAAAAA0000000000000000DD
:104B30000000000000000000000000000000000075
:104B40000000000000000000000000000000000065
:040000050800018965
:00000001FF
