:020000040800F2
:10000000B06E0120FD02000881120008F90C000802
:10001000BB1000088F0B0008012B00080000000037
:100020000000000000000000000000009114000823
:10003000A10B0008000000001F1300084D19000864
:100040001703000817030008170300081703000828
:100050001703000817030008170300081703000818
:100060001703000817030008170300081703000808
:1000700017030008170300081703000817030008F8
:1000800017030008170300081703000817030008E8
:1000900017030008170300081703000817030008D8
:1000A00017030008170300081703000817030008C8
:1000B00017030008170300081703000817030008B8
:1000C00017030008170300081703000817030008A8
:1000D00017030008D12200083123000891230008EB
:1000E0001703000817030008170300081703000888
:1000F0001703000817030008170300081703000878
:100100001703000817030008170300081703000867
:1001100005210008C9210008AD1B0008451D000885
:100120001703000817030008170300081703000847
:100130001703000817030008170300081703000837
:100140001703000817030008170300081703000827
:10015000170300081703000817030008F12300081D
:100160001703000817030008170300081703000807
:1001700017030008170300081703000817030008F7
:10018000170300081703000800F002F800F047F812
:100190000AA090E8000C82448344AAF10107DA45E2
:1001A00001D100F03CF8AFF2090EBAE80F0013F0ED
:1001B000010F18BFFB1A43F001031847B4480000B1
:1001C000D4480000103A24BF78C878C1FAD8520742
:1001D00024BF30C830C144BF04680C6070470000C1
:1001E0000023002400250026103A28BF78C1FBD840
:1001F000520728BF30C148BF0B607047642900F028
:100200000F81782900F04881732900F0768300205F
:1002100070471FB504F000FC1FBD10B510BD00F005
:10022000B9FB1146FFF7F5FF02F0E2FD00F0D7FB46
:1002300003B4FFF7F2FF03BC02F0FDFC2C4B19687E
:100240000868B0E8F04F80F30988BFF36F8F4FF074
:10025000000080F311887047000000000848006823
:10026000006880F308884FF0000080F3148862B6BD
:1002700061B6BFF34F8FBFF36F8F00DF00BF00BFCA
:1002800008ED00E0DFF80C00016841F47001016046
:10029000704700BF88ED00E0EFF30980BFF36F8F78
:1002A000134B1A681EF0100F08BF20ED108A20E9CA
:1002B000F04F106009B44FF0500080F31188BFF385
:1002C0004F8FBFF36F8F03F015FF4FF0000080F3E7
:1002D000118809BC19680868B0E8F04F1EF0100FCB
:1002E00008BFB0EC108A80F30988BFF36F8F7047A6
:1002F000A0000020EFF30580704700000948804708
:1003000009480047FEE7FEE7FEE7FEE7FEE7FEE7F7
:10031000FEE7FEE7FEE7FEE704480549054A064B0F
:10032000704700005519000889010008B04E0120EF
:10033000B06E0120B05E0120B05E01207047000069
:100340000FB4044910B503AA029800F0DBFA10BC00
:100350005DF814FB100000200FB41CB5074B06AA73
:100360007B4469460090059800F09DFA002069469C
:1003700000F0ACFA1CBC5DF814FB0000690500003D
:1003800070B5044685690068C10601D5302600E0D5
:100390002026C00707D070BDD4E901213046904720
:1003A000206A401C20626D1EF6D570BD70B50446F3
:1003B00085690078C00707D170BDD4E901212020EC
:1003C0009047206A401C20626D1EF6D570BD70B546
:1003D0000C460546012A05D02878800600D5EA6932
:1003E000002302E0012305E05B1C934202D2E05CA3
:1003F0000028F9D1A869E618C01AA861286A18442B
:1004000028622846FFF7BCFF04E0D5E9012114F873
:10041000010B9047B442F8D32846FFF7C7FF70BDE1
:100420002DE9F0410646002410687529314616A5CD
:1004300010D0AFF30080002802DA404213A507E095
:1004400031688A0701D512A502E0490704D511A534
:10045000012401E0AFF3008000210A2206F1240705
:1004600009E0B0FBF2FCB0FBF2F302FB1C00303001
:1004700078541846491C0028F3D123462A463046B2
:10048000BDE8F04100F0B1B9000000002D0000000F
:100490002B0000002000000070B504460D462146E8
:1004A0001068AFF300802188090502D50F4A7A440D
:1004B00002E00E4A7A440E32002104F1240305E0E2
:1004C00000F00F060009965D5E54491C0028F7D124
:1004D00020780023000704D5702D02D009B1022333
:1004E00011322046BDE8704000F07FB9824500001F
:1004F0002DE9F05F894604464FF0000ADFF874B139
:10050000FB44C0F820A02046E1688847002874D04A
:10051000252806D0D4E901219047206A401C20629A
:10052000F1E700265F462046E16888472028054617
:1005300007DB312D05D2781910F8200C08B10643DD
:10054000F1E7B00701D526F00406C4F81CA0002787
:10055000C4F818A02A2D09D0284602F065FB38B34C
:1005600004EB8708303DC8F8185019E059F8041B0F
:10057000204604EB87029161E1688847012F054618
:1005800018D1E069002820DA26F020061DE0D8F80E
:10059000180000EB800005EB40003038C8F8180068
:1005A0002046E1688847054602F03EFB0028EED170
:1005B000012F0AD02E2D08D12046E16888477F1CE4
:1005C0000546022F46F02006C4DBA069002803DAA6
:1005D000404246F00106A061F00701D026F0100667
:1005E0006C2D0BD0682D09D04C2D39D06A2D35D00B
:1005F000742D35D07A2D33D016E038E0E1682F46DF
:1006000020468847B842054609D16C2F26D04FF4C2
:100610008060E168064320468847054604E06C2F69
:100620001AD04FF4807006430DB3A5F1410019288C
:1006300002D8203546F400664A4629462046266000
:100640004E46FFF7DBFD80B101280BD0F61D26F0EA
:10065000070000F1080956E74020E4E78020D8E7CA
:100660000020D6E706F104094DE7284652E7206A44
:10067000BDE8F09F5845000010B5431C02E010F89B
:10068000011B71B18107FAD14FF0013202C88C1AF7
:100690008C4314EAC211F9D0C01A0A0603D0C01E56
:1006A00010BDC01A10BD0A0401D0801E10BD090281
:1006B000FCD0401E10BD032A40F2308010F0030C25
:1006C00000F0158011F8013BBCF1020F624498BFA5
:1006D00011F801CB00F8013B38BF11F8013BA2F142
:1006E000040298BF00F801CB38BF00F8013B11F0BD
:1006F000030300F01981083AC0F0088051F8043B68
:10070000083A51F804CBA0E80810F5E7121D5CBFC9
:1007100051F8043B40F8043BAFF30080D20724BFFC
:1007200011F8013B11F801CB48BF11F8012B24BF90
:1007300000F8013B00F801CB48BF00F8012B7047DF
:1007400002F0FF0343EA032242EA024200F002B849
:100750004FF000020429C0F0128010F0030C00F0EA
:100760001B80CCF1040CBCF1020F18BF00F8012B68
:10077000A8BF20F8022BA1EB0C0100F00DB85FEA36
:10078000C17C24BF00F8012B00F8012B48BF00F802
:10079000012B70474FF0000200B513469446964671
:1007A000203922BFA0E80C50A0E80C50B1F1200184
:1007B000BFF4F7AF090728BFA0E80C5048BF0CC032
:1007C0005DF804EB890028BF40F8042B08BF704790
:1007D00048BF20F8022B11F0804F18BF00F8012B02
:1007E000704770477047704770472DE9F0470D46D6
:1007F00099469246044600F124080168880604D50B
:10080000E06921F01001216000E00120A84201DD33
:10081000471B00E00027A1697A1902EB0900081ABA
:10082000A0612078C00602D42046FFF7A9FD00266B
:1008300008E0D4E901211AF806009047206A401C1C
:10084000761C20624E45F4DB2078C0060AD520468F
:10085000FFF796FD06E0D4E9012130209047206A99
:10086000401C2062381EA7F10107F4DC07E0D4E940
:10087000012118F805009047206A401C2062281EBC
:10088000A5F10105F3DC2046FFF790FD2078000676
:1008900002D50220BDE8F0870120FBE701694A1C70
:1008A00002610878704700B58FB0CDE901310021B1
:1008B000059105497944CDE9031011466846FFF7D3
:1008C00017FE0FB000BD0000E5FFFFFF0A6802F849
:1008D000010B0A60704710B5436913B1AFF3008094
:1008E00001E0FFF774FD012010BD127800F1240132
:1008F0000A7000224A700122EDE711684FF0FF32C2
:10090000E9E70000074B70B50D467B44FFF7CBFFCE
:100910000446284600F03AF810B14FF0FF3070BDA1
:10092000204670BDE323000010B5203AC0F00B80D4
:10093000B1E81850203AA0E81850B1E81850A0E8E3
:100940001850BFF4F5AF5FEA027C24BFB1E818503D
:10095000A0E8185044BF18C918C0BDE810405FEAAD
:10096000827C24BF51F8043B40F8043B08BF704729
:10097000D20728BF31F8023B48BF11F8012B28BF2E
:1009800020F8023B48BF00F8012B7047007B00F0C5
:1009900080007047754600F02BF8AE4605006946AA
:1009A000534620F00700854618B020B5FFF7B4FC89
:1009B000BDE820404FF000064FF000074FF0000860
:1009C0004FF0000B21F00701AC46ACE8C009ACE8E1
:1009D000C009ACE8C009ACE8C0098D46704710B545
:1009E0000446AFF300802046BDE81040FFF720BC6E
:1009F00000487047504E012021B1826842F0010248
:100A0000826003E0826822F0010282607047000089
:100A10000021084A1168084A1140D0E900231A430E
:100A200083681A43C3681A431143044AC2F8041383
:100A30007047000004230140E030FCFF002001402B
:100A40000146C86C80B270470246002013680B4014
:100A50000BB1012000E000207047000030B50246D5
:100A6000002000235068104C20400D790C6844EAA7
:100A700005242043506090680C4C2040D1E9035479
:100A80002C438D682C434D7944EA45042043906003
:100A9000D06A20F470000C7D641EE4B2234340EA67
:100AA0000350D06230BD0000FFFEFFFCFDF7FFC029
:100AB000F0B504460D4600200021092D11DDE06847
:100AC000A5F10A0606EB4607072606FA07F1884352
:100AD000A5F10A0606EB460603FA06F10843E060B4
:100AE0000CE0206905EB4507072606FA07F1884365
:100AF00005EB450603FA06F108432061072A0FDAE1
:100B0000606B561E06EB86071F2606FA07F1884320
:100B1000561E06EB860605FA06F10843606322E0DE
:100B20000D2A0FDA206BD61F06EB86071F2606FA62
:100B300007F18843D61F06EB860605FA06F108433F
:100B4000206310E0E06AA2F10D0606EB86071F267F
:100B500006FA07F18843A2F10D0606EB860605FAB0
:100B600006F10843E062F0BD816841F08041816098
:100B7000704770B504460D4622460221084600F033
:100B800001FD2A460221012000F0FCFC70BD00BFDF
:100B9000FEE710B500220121032000F0F3FC10BD98
:100BA000704770B504460D4622460121022000F030
:100BB000E9FC2A460121084600F0E4FC70BDF0B5CE
:100BC0000A4600210023002400BF3DE0012505FA6C
:100BD00001F3156805EA03049C4234D105684F000F
:100BE0000326BE40B543056015794E00B540066842
:100BF000354305601579012D02D01579022D16D1E6
:100C000085684F000326BE40B543856055794E0088
:100C1000B540866835438560456801268E40B543FA
:100C20004560456896798E40B6B235434560C568E3
:100C30004F000326BE40B543C560D5794E00B54090
:100C4000C6683543C560491C1029BFD3F0BDF0B557
:100C5000002300244D07ED0E02FA05F3CE1000F13B
:100C6000200555F826504E07F70E0F26BE40B54317
:100C7000CF1000F1200646F82750CE1000F12005D5
:100C800055F8265045EA0304CE1000F1200545F83A
:100C90002640F0BD0A048261704781617047000000
:100CA00010B50748FFF760FF00BF02210448FFF7B7
:100CB000CBFE0028F9D00248FFF7C2FE10BD0000AD
:100CC0000020014010B52DED028B3F21502000F097
:100CD00015F80446C01704EB5040C013B42110FBB4
:100CE00001F000EE100AB8EEC00AB0EE408AB0EE95
:100CF000480ABDEC028B10BD00BFFEE738B50446C4
:100D00000D460020009000F037F9002141EA44012F
:100D1000C8B200F0FDF80A2001F0B6FF00F078F943
:100D200020B100F04FF94FF0FF3038BD052001F041
:100D3000ABFF284600F0ECF8052001F0A5FF00F01D
:100D400067F920B100F03EF94FF0FF30EDE70520E4
:100D500001F09AFF00F010F9052001F095FF012144
:100D600001EB4401C8B200F0D3F8052001F08CFF7C
:100D700000F04EF920B100F025F94FF0FF30D4E734
:100D8000052001F081FF012000F08CF88DF80000B3
:100D9000052001F079FF002000F084F88DF80100B3
:100DA000052001F071FF00F00DF99DF800009DF89D
:100DB000011040EA012000B2B7E7000010B50020A2
:100DC0000F4908600F48006820F440400D49086052
:100DD0000846006840F48040086000200A49C1F8D5
:100DE0009C02022001F050FF01200549086002200A
:100DF00001F04AFF00200449C1F8980210BD00002C
:100E00009882404200040240008040421CB501210B
:100E1000022000F089FAC020009001208DF8040023
:100E200000208DF8060003208DF8050001208DF8C4
:100E3000070069460448FFF7C2FE01200349086025
:100E40000349C1F89C021CBD000402409882404244
:100E50000080404210B500200F4908600F4800682C
:100E600020F440400D4908600846006840F4804086
:100E7000086001200A49C1F89C02022001F004FF29
:100E8000012005490860022001F0FEFE002004490F
:100E9000C1F8980210BD0000988240420004024050
:100EA0000080404270B5054600241648006820F4D2
:100EB000404014490860084600680860002616E0B3
:100EC000002011490860022001F0DEFE01200F49D8
:100ED000C1F898026006040E0B487C38006808B11F
:100EE000601CC4B2012001F0CFFE701CC6B2082EF7
:100EF000E6DB15B9FFF7AEFF01E0FFF75FFF204625
:100F000070BD0000000402409882404200804042D0
:100F100070B504461548006820F440401349086045
:100F20000846006840F480400860002010490860CE
:100F3000002517E0E0090E49091D08606006040E4F
:100F4000022001F0A1FE01200A49C1F89802022006
:100F500001F09AFE002006490860022001F094FE8C
:100F6000681CC5B2082DE5DB70BD0000000402401E
:100F7000988240420080404210B50F48006820F43B
:100F800040400D4908600846006840F48040086011
:100F900001200A4908600A49C1F89802042001F0BA
:100FA00073FE002005490860042001F06DFE00205A
:100FB0000349C1F8980210BD000402409C824042DF
:100FC0000080404210B50F48006820F440400D49B1
:100FD00008600846006840F48040086000200A4924
:100FE00008600A49C1F89C02042001F04DFE01206E
:100FF000054908600549C1F89C02042001F044FE3F
:1010000010BD00000004024098824042008040422F
:1010100010B500241348006820F4404011490860CE
:1010200008460068086001200F49086001F02CFEA6
:1010300001200E49C1F8980201F026FE07E0601C6D
:10104000C4B2FA2C03DDFFF7BDFF012010BD064836
:10105000803800680028F2D10349091F086000BFEA
:10106000F4E70000000402409C82404200804042BD
:1010700011E03F215020FFF741FEB42110FB01F4A5
:10108000E01704EB5040C11303A0FFF759F94FF4E8
:10109000FA6002F019FFECE743757272656E742016
:1010A000596177203D2025640D0A000004E001F01D
:1010B0003FFE322002F008FFF9E700BFFEE710B55F
:1010C0005321632000F0CEFC5321632000F076FC16
:1010D0005321632000F01AFD01F0E2FE01F0FAFE58
:1010E00001F012FF00F096FA10BD000075E03B48D9
:1010F0000078002871D000203849087038480078FE
:101100000B2869D2DFE800F068060D141B222528A1
:10111000415A65003348017833480078FFF741FDB4
:101120005AE03048017830480078FFF722FD53E05C
:101130002C4801782C48007800F01FFF4CE029482B
:1011400001782948007800F026FF45E000F0E0F83B
:1011500042E0FFF71EFD3FE0234800780A302249B5
:101160000870204800780A301E4908701E48007830
:10117000642802DB64201C4908701A48007864283F
:1011800002DB64201749087026E0174800780A3807
:1011900015490870134800780A3812490870124837
:1011A0000078C82802DD00200F4908700D4800783B
:1011B000C82802DD00200B4908700DE00022012143
:1011C000022000F0DFF900220121084600F0DAF9E0
:1011D00002E0FFF7DEFC00BF00BF88E757000020F9
:1011E00058000020550000205400002000B58DB0AC
:1011F0000121042000F098F80121080200F0B4F861
:1012000001200B9003208DF830008DF83100002074
:101210008DF833000BA91848FFF7D1FC0121080213
:1012200000F0B2F800214FF4807000F0ADF800201B
:101230000190049003904FF48030029001A8FFF7D2
:10124000E7FB002005908DF819008DF81800099033
:1012500001208DF8280005A90848FFF7FFFB0623A9
:1012600001220A210548FFF723FC01210348FFF76B
:10127000C3FB0DB000BD000000080240002001408B
:101280007047000070B5002100230F22C4781CB302
:10129000174C246804F4E064C4F5E064C4F3072147
:1012A000C1F10404E3B20A4144789C40E1B284787D
:1012B000144021430C07210E0E4C0578615504782B
:1012C00004F01F050124AC4005786D11AD0005F157
:1012D000E025C5F8004109E0047804F01F05012469
:1012E000AC40054D0678761145F8264070BD0000EB
:1012F0000CED00E000E400E080E100E00249014381
:10130000024A1160704700000000FA050CED00E091
:1013100010B564220121032000F034F910BD10B58E
:10132000FEF7BAFF10BD000029B1064A1268024359
:10133000044B1A6004E0034A12688243014B1A60AE
:10134000704700003038024029B1064A1268024353
:10135000044B1A6004E0034A12688243014B1A608E
:10136000704700004038024029B1064A1268024323
:10137000044B1A6004E0034A12688243014B1A606E
:10138000704700004438024029B1064A12680243FF
:10139000044B1A6004E0034A12688243014B1A604E
:1013A0007047000024380240F0B5002100220024DC
:1013B000022500260223324F3F6807F00C0121B1BD
:1013C000042905D0082937D105E02E4F076036E003
:1013D0002D4F076033E02A4F3F1F3F68C7F3805609
:1013E000274F3F1F3F6807F03F036EB1264FB7FB03
:1013F000F3F7DFF88CC0ACF1040CDCF800C0CCF3E0
:10140000881C07FB0CF40CE01E4FB7FBF3F7DFF86A
:1014100070C0ACF1040CDCF800C0CCF3881C07FBF6
:101420000CF4174F3F1F3F68C7F301477F1C7D0037
:10143000B4FBF5F7076002E0124F076000BF00BF82
:101440000F4F3F6807F0F0010909104F7A5C0768F9
:10145000D74047600A4F3F6807F4E051890A0B4FB5
:101460007A5C4768D7408760054F3F6807F4604162
:10147000490B064F7A5C4768D740C760F0BD000053
:10148000083802400024F40000127A000000002016
:1014900010B5FEF7D3FE10BD0CB5002001900090F2
:1014A0003448006840F480303249086000BF314859
:1014B000006800F4003000900198401C01900098F2
:1014C00018B90198B0F5A04FF1D12A48006800F48E
:1014D000003010B10120009001E000200090009841
:1014E000012846D123484030006840F0805021490F
:1014F000403108602048006840F440401E490860C0
:101500001C48083000681B4908310860084600681C
:1015100040F4004008600846006840F4A0500860AD
:101520001648091F0860081F006840F08070091FF6
:10153000086000BF0F48006800F000700028F9D074
:1015400040F205700E4908600A480830006820F033
:1015500003000849083108600846006840F00200AE
:10156000086000BF03480830006800F00C0008283D
:10157000F8D10CBD0038024000700040085440070C
:10158000003C024070B506460C461546012E04D0BC
:10159000022E12D0032E30D11FE0012C04D1802165
:1015A0001748FFF777FB03E080211548FFF775FB2D
:1015B0002946144800F085FC1FE0012C04D11021BD
:1015C0001148FFF767FB03E010210F48FFF765FBA9
:1015D00029460E4800F075FC0FE0012C04D11021C3
:1015E0000748FFF757FB03E010210548FFF755FBBD
:1015F0002946074800F065FC00BF00BF70BD000031
:101600000000024000480140000802400044014040
:10161000001C004010B50021054800F052FC0021DC
:10162000044800F04EFC0021034800F04AFC10BDC5
:101630000048014000440140001C004000B5024643
:10164000907C10B300209074108800F05AF8E0B13C
:10165000D37C901C30F81300D168081AD060118830
:10166000D37C901C20F813101188D0680844D060F7
:10167000D07C401CD074D07C052801DB0020D074C5
:101680000521D068B0FBF1F0108200BD1FB51A4BE8
:10169000D3E901021968DB6801AC0DC40091002494
:1016A00027E05DF824001421FFF774F8002007E01C
:1016B0004FF4FA625DF82410891C21F81020401CB8
:1016C0000528F5DB42F210705DF82410C8604FF475
:1016D000FA605DF8241008824FF6FD705DF8241062
:1016E000088000205DF8241088745DF82410C87408
:1016F000641C042CD5DB1FBD244A00080146088A5F
:10170000704701464FF6FD70814204D0B1F5FA6F83
:1017100001DC012070470020FCE7018070470000D9
:101720001CB5044602F0C0FA304801210023802293
:10173000CDE900102EA1344802F08AFE012802D023
:1017400032A0FEF7FDFD3848012100238022CDE9BB
:10175000001036A1394802F07BFE012802D038A0E3
:10176000FEF7EEFD3D48012100238022CDE9001067
:101770003BA1404802F06CFE012802D03EA0FEF7DB
:10178000DFFD3648012100238022CDE9001042A16F
:10179000474802F05DFE012802D046A0FEF7D0FDCA
:1017A0005048032100234FF40072CDE900104EA1F0
:1017B000524802F04DFE012802D051A0FEF7C0FDB4
:1017C000564802210023CA01CDE9001054A1574810
:1017D00002F03EFE012802D055A0FEF7B1FD02F056
:1017E00075FA002002F08AFB1CBD0000600000209A
:1017F000636865636B20666F722077617465722021
:10180000656E747279000000052B000877617465BD
:1018100072207461736B20637265617465206572F8
:10182000726F72200D0A00006C000020636F6E74EE
:10183000726F6C206D6F74696F6E0000ED100008A0
:101840006D6F7665207461736B206372656174657A
:10185000206572726F72200D0A0000006400002083
:1018600067657420756C747261736F6E6963206450
:1018700061746100B92A0008756C747261736F6ECF
:101880006963207461736B206372656174652065A0
:1018900072726F72200D0A0070726F63657373202D
:1018A000756C747261736F6E69632064617461003A
:1018B000452A000870726F6365737320756C7472CB
:1018C00061736F6E69632064617461207461736B0E
:1018D00020637265617465206572726F72200D0AF3
:1018E00000000000700000207265616420696D7561
:1018F0002064617461207461736B000071100008D2
:10190000696D75207461736B206372656174652005
:101910006572726F72200D0A0000000074000020D2
:10192000696D75207478203230687A00AD10000837
:10193000696D75207478207461736B2063726561C2
:101940007465206572726F72200D0A0010B502F086
:1019500035FC10BD10B51548006840F470001349FF
:1019600008601348006840F0010011490860002039
:101970000F49083108600E4800680E4908400C49BC
:1019800008600D48091D0860081F006820F48020C9
:10199000091F0860002006490C310860FFF77CFD34
:1019A0004FF0006001498039086010BD88ED00E00B
:1019B00000380240FFFFF6FE1030002430B58BB037
:1019C00004460D4601212020FFF7AEFC012148040A
:1019D000FFF7CAFC032206212048FFF738F9402010
:1019E000099002208DF8280003208DF8290000209E
:1019F0008DF82A0001208DF82B0009A91748FFF760
:101A0000DEF8ADF818500020ADF81A000794ADF8D4
:101A1000200006A9124800F057FA6020ADF8040033
:101A20000120ADF8060000200390ADF8100001A9D8
:101A30000B4800F0FFF90821094800F039FA0121AC
:101A4000074800F093F90121054800F0A1F90021B1
:101A5000034800F036FA0BB030BD0000001402401D
:101A60000044014030B58BB004460D4601212020D2
:101A7000FFF75AFC01218804FFF776FC03220721B7
:101A80002048FFF7E4F88020099002208DF8280014
:101A900003208DF8290000208DF82A0001208DF800
:101AA0002B0009A91748FFF78AF8ADF81850002055
:101AB000ADF81A000794ADF8200006A9124800F00E
:101AC00003FA6020ADF804000120ADF80600002004
:101AD0000390ADF8100001A90B4800F0ABF9082104
:101AE000094800F0E5F90121074800F03FF901211C
:101AF000054800F04DF90021034800F0E2F90BB071
:101B000030BD0000001402400048014030B58BB0E9
:101B100004460D4601212020FFF706FC012180200C
:101B2000FFF712FC092208211E48FFF790F84FF436
:101B30008070099002208DF8280003208DF829007C
:101B400000208DF82A0001208DF82B0009A91548E6
:101B5000FFF735F8ADF818500020ADF81A000794DB
:101B6000ADF8200006A9104800F0AEF96020ADF8ED
:101B700004000120ADF8060000200390ADF810002D
:101B800001A9094800F056F90821074800F090F92A
:101B90000121054800F0EAF80121034800F0F8F8B7
:101BA0000BB030BD00140240001C004010B50121F4
:101BB000514800F005F900287ED001214E4800F080
:101BC000E4F84E480088C0B14D4800680A280FD399
:101BD00000204B490860494801884A4800F0E9F96B
:101BE000FF214848FEF7B4FD00204449088004E086
:101BF00043480068401C4249086043480088A8B137
:101C0000424800680A280CD33F480188404800F049
:101C1000E1F9FF213E48FEF79BFD00203A4908808C
:101C200004E03A480068401C384908603948008898
:101C3000A8B1394800680A280CD3364801883748CB
:101C400000F012FAFF213548FEF782FD00203149ED
:101C5000088004E030480068401C2F490860304884
:101C60000088A8B12F4800680A280CD32C480188A6
:101C70002D4800F087FAFF212B48FEF769FD002070
:101C80002749088004E027480068401C254908606F
:101C900026480088B0B1264800680A280DD323489A
:101CA0000188244800F0D0FAFF212248FEF750FDB9
:101CB00000201E49088005E01DE01D480068401C0A
:101CC0001B4908601C480088A8B11C4800680A2805
:101CD0000CD3194801881A4800F0D8FAFF21184897
:101CE000FEF736FD00201449088004E01348006820
:101CF000401C1249086010BD001000401400002074
:101D000018000020200100201C00002020000020DE
:101D10001F02002024000020280000201E030020B5
:101D20002C000020300000201D0400203400002082
:101D3000380000201C0500203C000020400000204E
:101D40001B06002010B50121064800F030F80128DC
:101D500007D10121034800F018F800F0E9FE02491C
:101D6000086010BD001400404400002021B102882A
:101D700042F08002028004E002884FF67F731A402E
:101D800002807047CA4302827047CA43028270478A
:101D900021B1028842F00102028004E002884FF67D
:101DA000FE731A40028070470146486A7047024637
:101DB0000020138A0B400BB1012000E00020704787
:101DC00030B50246002000230024158A05EA0103ED
:101DD000958905EA010413B10CB1012000E000204F
:101DE00030BD1AB183890B43838102E083898B4321
:101DF000838170470EB501211020FFF7A5FA092055
:101E0000019042F2CF00ADF800006946084800F0AA
:101E10005BF801210648FFF7B5FF0122114604488F
:101E2000FFF7DFFF01210248FFF7B2FF0EBD000000
:101E30000010004070B5002400220023058C4FF6EE
:101E4000FE7635400584028C8388048B4FF68F75AF
:101E50002C40B51E2C400D882C43751E2A408D89C0
:101E60002A434D882A43104DA84202D00F4DA84264
:101E700013D14FF6F7752A40CD892A434FF6FB75EB
:101E80002A408D882A434FF6FF652B404FF6FF55B9
:101E90002B400D8A2B434D8A2B43838004838D680E
:101EA0004563028470BD0000000001400004014051
:101EB0000A460021018B4FF6F77319401143018345
:101EC000704741637047000000220288184B984217
:101ED0000ED0184B98420BD0B0F1804F08D0164B63
:101EE000984205D0154B984202D0154B984204D128
:101EF0004FF68F731A404B881A43124B984207D003
:101F0000114B984204D04FF6FF431A400B891A43F5
:101F100002804B68C3620B880385054B984202D050
:101F2000044B984201D18B7A038601238382704748
:101F3000000001400004014000040040000800408F
:101F4000000C0040001000400014004010B500F0EC
:101F500003F8FFF74FFF10BD08B536208DF80000DD
:101F600000208DF8010003208DF8020001208DF87B
:101F700003006846FFF786F908BD70B504460D46B4
:101F8000224601210220FFF7FDFA2A460221012004
:101F9000FFF7F8FA70BD70B504460D4622460221DF
:101FA0000846FFF7EFFA2A4601210846FFF7EAFA4A
:101FB00070BD704710B5044600BF8021044800F092
:101FC00063FA0028F9D02146014800F028FB10BD33
:101FD0000044004070B504460D46042D17D120780A
:101FE000FF2814D10321204600F027FEE178884223
:101FF0000DD1012006498874A078617800EB01209A
:1020000004490880084601880148FFF786FB70BD37
:10201000580700204C00002010B5044600BF802166
:10202000044800F031FA0028F9D02146014800F0B8
:10203000F6FA10BD0048004070B504460D46002673
:1020400000BF04E02078FFF7E7FF641C761CAE4277
:10205000F8DB00BF4021034800F016FA0028F9D051
:1020600070BD0000004800400122244B1A70027825
:10207000412A03D10122224B1A703DE00278422A04
:1020800003D102221E4B1A7036E00278432A03D194
:1020900004221B4B1A702FE00278442A03D103223A
:1020A000174B1A7028E00278212A03D10522144B1D
:1020B0001A7021E00278512A03D10622104B1A70BF
:1020C0001AE00278252A03D10A220D4B1A7013E078
:1020D0000278332A03D10722094B1A700CE00278E8
:1020E000362A03D10822064B1A7005E00278302AFE
:1020F00002D10922024B1A707047000057000020DD
:102100005800002010B540F22551124800F0C9F9DE
:10211000F0B111480088FF280BDB0F4801880F48F9
:1021200000F030F8FF210D48FEF712FB00200A49AD
:102130000880084800F06EFA0849074A1288885457
:1021400005480088401C04490880002004490860B4
:1021500010BD0000004C00402C0000201D04002099
:102160003000002010B5044600BF8021044800F074
:102170008BF90028F9D02146014800F050FA10BD33
:10218000004C004070B504460D46042D17D1207850
:10219000FF2814D10321204600F04FFDE17888424A
:1021A0000DD1002006498874A078617800EB0120E9
:1021B00004490880084601880148FFF7AEFA70BD5F
:1021C000440700204E00002010B540F2255112486F
:1021D00000F067F9F0B111480088FF280BDB0F48C9
:1021E00001880F4800F030F8FF210D48FEF7B0FAE3
:1021F00000200A490880084800F00CFA0849074AFC
:102200001288885405480088401C04490880002032
:102210000449086010BD0000005000403400002058
:102220001C0500203800002010B5044600BF8021A6
:10223000044800F029F90028F9D02146014800F0AF
:10224000EEF910BD0050004070B504460D46042D57
:1022500017D12078FF2814D10321204600F0EDFC8F
:10226000E17888420DD1012006498874A078617810
:1022700000EB012004490880084601880148FFF767
:102280004CFA70BD300700205000002070B50446A5
:102290000D46042D17D12078FF2814D103212046A4
:1022A00000F0CBFCE17888420DD10020064988740B
:1022B000A078617800EB0120044908800846018875
:1022C0000148FFF72AFA70BD1C07002052000020C9
:1022D00010B540F22551124800F0E3F8F0B1114872
:1022E0000088FF280BDB0F4801880F48FFF761FECD
:1022F000FF210D48FEF72CFA00200A490880084803
:1023000000F088F90849074A12888854054800886F
:10231000401C0449088000200449086010BD0000EA
:1023200000100140140000202001002018000020AF
:1023300010B540F22551124800F0B3F8F0B1114841
:102340000088FF280BDB0F4801880F48FFF742FE8B
:10235000FF210D48FEF7FCF900200A4908800848D3
:1023600000F058F90849074A12888854054800883F
:10237000401C0449088000200449086010BD00008A
:10238000004400401C0000201F020020200000200C
:1023900010B540F22551124800F083F8F0B1114811
:1023A0000088FF280BDB0F4801880F48FFF75CFE11
:1023B000FF210D48FEF7CCF900200A4908800848A3
:1023C00000F028F90849074A12888854054800880F
:1023D000401C0449088000200449086010BD00002A
:1023E00000480040240000201E0300202800002098
:1023F00010B540F22551124800F053F8F0B11148E1
:102400000088FF280BDB0F4801880F48FFF73EFFCD
:10241000FF210D48FEF79CF900200A490880084872
:1024200000F0F8F80849074A1288885405480088DF
:10243000401C0449088000200449086010BD0000C9
:10244000001401403C0000201B060020400000203A
:1024500010B5044600BF8021044800F015F800289C
:10246000F9D02146014800F0DAF810BD001401400F
:1024700021B1828942F40052828104E082894DF6C2
:10248000FF731A408281704702460020B1F5007F39
:1024900000D100BF13880B400BB1012000E00020E9
:1024A000704770B50246002400230025002040F646
:1024B0006A16B14200D100BFC1F3421501F01F03FB
:1024C000012606FA03F3012D02D19689334006E076
:1024D000022D02D1168A334001E0968A33400C1255
:1024E000012606FA04F41688344013B10CB1012019
:1024F00000E0002070BDF0B5034600240026002552
:10250000002040F66A17B94200D100BF1846C1F357
:10251000421401F01F06012707FA06F5012C01D12C
:102520000C3004E0022C01D1103000E014301AB15C
:1025300007682F43076002E00768AF430760F0BDFC
:102540002DE9FF4705460E460024A14600BFA046E0
:10255000B08900B100BF2C8A24F44054F0880443B1
:102560002C82AC8941F20C608443B08831890843E5
:10257000718908430443AC81AC8A24F44074B08967
:102580000443AC826846FEF70FFF2048854202D024
:102590001F48854202D1DDF80C9001E0DDF808907B
:1025A000A88900F4004040B109EBC90000EB091014
:1025B00031684900B0FBF1F707E009EBC90000EB17
:1025C000091031688900B0FBF1F76420B7FBF0F027
:1025D00004012009642101FB1078A88900F400405F
:1025E00040B1322000EBC800B0FBF1F000F0070072
:1025F000044308E0322000EB08106421B0FBF1F046
:1026000000F00F0004432C81BDE8FF87001001405B
:102610000014014001468888C0F308007047C1F3E8
:10262000080282807047000010B588B0044601217E
:102630000846FEF779FE01211020FEF795FE0722DD
:1026400009212248FEF703FB07220A211F48FEF753
:10265000FEFA4FF4C060069002208DF81C008DF841
:102660001D0000208DF81E0001208DF81F0006A916
:102670001648FEF7A4FA02940020ADF80C00ADF85D
:102680000E00ADF81000ADF814000C20ADF81200EB
:1026900002A90F48FFF754FF012240F225510C48D0
:1026A000FFF729FF25208DF8040007208DF805008D
:1026B0008DF8060001208DF8070001A8FEF7E2FD65
:1026C00001210348FFF7D4FE08B010BD000002400E
:1026D0000010014010B588B0044601210846FEF7FD
:1026E00023FE01214804FEF72FFE07220221224883
:1026F000FEF7ADFA072203211F48FEF7A8FA0C20C7
:10270000069002208DF81C008DF81D0000208DF829
:102710001E0001208DF81F0006A91748FEF74FFA8A
:1027200002940020ADF80C00ADF80E00ADF81000DA
:10273000ADF814000C20ADF8120002A90F48FFF705
:10274000FFFE012240F225510C48FFF7D4FE26205F
:102750008DF8040000208DF8050007208DF8060094
:1027600001208DF8070001A8FEF78CFD0121034828
:10277000FFF77EFE08B010BD00000240004400409C
:1027800010B588B0044601210220FEF7CDFD0121DD
:102790008804FEF7D9FD07220A212248FEF757FADE
:1027A00007220B211F48FEF752FA4FF440600690B3
:1027B00002208DF81C008DF81D0000208DF81E00F1
:1027C00001208DF81F0006A91648FEF7F8F90294BB
:1027D0000020ADF80C00ADF80E00ADF81000ADF81B
:1027E00014000C20ADF8120002A90F48FFF7A8FE54
:1027F000012240F225510C48FFF77DFE27208DF87D
:10280000040007208DF805008DF8060001208DF8E2
:10281000070001A8FEF736FD01210348FFF728FE57
:1028200008B010BD000402400048004010B588B058
:10283000044601210420FEF777FD0121C804FEF7BC
:1028400083FD08220A212348FEF701FA08220B2102
:102850002048FEF7FCF94FF44060069002208DF806
:102860001C008DF81D0000208DF81E0001208DF841
:102870001F0006A91748FEF7A2F902940020ADF840
:102880000C00ADF80E00ADF81000ADF814000C20EF
:10289000ADF8120002A91048FFF752FE012240F2E3
:1028A00025510D48FFF727FE34208DF80400002045
:1028B0008DF8050007208DF8060001208DF807002F
:1028C00001A8FEF7DFFC01210348FFF7D1FD08B0A6
:1028D00010BD000000080240004C004010B588B058
:1028E000044601210C20FEF71FFD01210805FEF71B
:1028F0002BFD082202212548FEF7A9F908220C2108
:102900002348FEF7A4F941F20400069002208DF856
:102910001C008DF81D0000208DF81E0001208DF890
:102920001F0006A91A48FEF74AF906A91748FEF73C
:1029300046F902940020ADF80C00ADF80E00ADF899
:102940001000ADF814000C20ADF8120002A91148D7
:10295000FFF7F6FD012240F225510E48FFF7CBFDAF
:1029600035208DF8040000208DF8050007208DF833
:10297000060001208DF8070001A8FEF783FC012165
:102980000448FFF775FD08B010BD0000000C0240C0
:10299000000802400050004010B588B004460121F4
:1029A0000420FEF7C1FC01212020FEF7DDFC0822F7
:1029B00006212248FEF74BF9082207211F48FEF79F
:1029C00046F9C020069002208DF81C008DF81D00ED
:1029D00000208DF81E0001208DF81F0006A9174861
:1029E000FEF7EDF802940020ADF80C00ADF80E00F3
:1029F000ADF81000ADF814000C20ADF8120002A9DB
:102A00000F48FFF79DFD012240F225510C48FFF7CA
:102A100072FD47208DF8040000208DF80500072086
:102A20008DF8060001208DF8070001A8FEF72AFCAA
:102A300001210348FFF71CFD08B010BD000802404B
:102A400000140140002426E01348FEF757FE054617
:102A50001248FEF753FE854203DA0F48FEF74EFE9A
:102A600002E00E48FEF74AFE044621460CA0FDF7A0
:102A700067FCB4F57A7F0EDA3C210846FFF77DFA51
:102A800040F6B83001F020FA32210846FEF771F81E
:102A9000002001F033FAD7E7580700203007002064
:102AA00043757272656E742044697374616E7365E8
:102AB000203D2025640D0A001DE00120FFF77AFA71
:102AC0000D48FEF7BBFD142001F0FEF90120FFF7D1
:102AD00049FB142001F0F8F90120FFF7A5FB074896
:102AE000FEF7ACFD142001F0EFF90120FFF7B0FC78
:102AF000142001F0E9F9E0E7580700203007002032
:102B000000BFFEE70AE0FEF7CBF80446214604A02A
:102B1000FDF716FC4FF47A7001F0D6F9F3E70000E8
:102B20007761746572203A202564200D0A00000048
:102B300010B5FEF7C7F8314880ED000A304890ED37
:102B4000000A304880ED000A2F4890ED000A2B481B
:102B5000D0ED000A30EE600A294880ED000A2B48CB
:102B600090ED000A2648D0ED000A30EE200A2748F2
:102B700080ED000A264890ED000A2148D0ED000AB9
:102B800020EE200A2348D0ED000A204890ED001ADC
:102B900000EE810A1A48D0ED000A1A4890ED001A9A
:102BA00070EEC10A1C4890ED001A01EE200A1B4885
:102BB00080ED000A90ED000ADFED190AB4EEE00A9C
:102BC000F1EE10FA04DD9FED160A80ED000A0DE02B
:102BD000124890ED000ADFED130AB4EEE00AF1EEC0
:102BE00010FA03D29FED0F0A80ED000A0B4890ED1A
:102BF000000ABDEEC00A10EE100A10BD80000020D1
:102C000094000020980000207C0000209C00002000
:102C1000880000208C00002090000020840000200C
:102C20000000A0420000A0C230380A2801D20120D2
:102C300070470020704700BF704710B50246002360
:102C4000002003E0145C1C44E3B2401C8842F9DB22
:102C5000184610BD0EB501210846FEF775FB4FF072
:102C6000FF3001905320ADF800000020ADF80800BF
:102C7000ADF8020069464FF08040FFF725F90121C9
:102C80008807FFF785F80EBD70B504464FF0804009
:102C9000FFF78AF8051900BF4FF08040FFF784F86E
:102CA000A842F9D370BD0000012101200B4A12682F
:102CB0000AB1002011E00A4A12680AB100200CE0B3
:102CC000084A12680AB1002007E0074A1368074A59
:102CD0001268521E934200D1022070473008002033
:102CE000C4000020C000002068080020B0000020C0
:102CF00070B504460D4600BF80210548FFF7C4FBB0
:102D00000028F9D0A1B20248FFF789FC204670BD27
:102D10000010014010B502460023002003E0145CBF
:102D20006340441CA0B28842F9DB184610BD000085
:102D30002DE9F04794B03F215020FDF7DFFF80469A
:102D400044F2506118FB01F0C11700EB5141CC1364
:102D50004FF00009002C02DA4FF0010964426420B0
:102D600094FBF0F594FBF0F100FB1146B9F1000F74
:102D700006D033462A4613A10CA8FDF7EDFA05E06C
:102D800033462A4613A10CA8FDF7E6FA0CA8FDF776
:102D900073FC1FFA80FA51460CA8FFF7BBFF0746E9
:102DA0003B460CAA0FA16846FDF7D6FA6846FDF728
:102DB00063FC1FFA80FA51466846FFF73DF914B0EC
:102DC000BDE8F087494D552C2D256C642E253032F9
:102DD0006C640000494D552C256C642E2530326CF6
:102DE000640000002425732C253032580D0A0000A1
:102DF0001CB54FF44070FEF781FAFFF72BFF4FF43C
:102E0000E130FFF711FC4FF4E130FFF763FC4FF4C2
:102E1000E130FFF7B5FC4FF4E130FFF707FD4FF469
:102E2000E130FFF75BFD4FF4E130FFF7B5FDFFF751
:102E30008DF8FEF744F9FDF7E9FFFEF7D7F9FEF745
:102E400025FC0020012103468022CDE9001007A1C6
:102E50000B4801F0FDFA012804D00AA0FDF770FA32
:102E600001201CBD01F0F2F80020FAE763726561F1
:102E70007465206F74686572207461736B00000064
:102E8000211700087374617274207461736B20637E
:102E9000726561746572206572726F72200D0A002E
:102EA0001CB501210846FEF73FFA80200090012062
:102EB0008DF8040003208DF8050000208DF8060031
:102EC00001208DF8070069460148FDF778FE1CBD1A
:102ED000000002401CB501210420FEF725FA102055
:102EE000009001208DF8040000208DF806000320DA
:102EF0008DF8050001208DF8070069460148FDF7AF
:102F00005EFE1CBD000802401CB501210846FEF70C
:102F10000BFA1020009001208DF8040000208DF89D
:102F2000060003208DF8050001208DF80700694692
:102F30000148FDF744FE1CBD000002402DE9F047AA
:102F400005460E46254807682548D0F800802548E4
:102F5000D0F8009000202449096881F84A002248EE
:102F60000068001D00F012FE681CE0B9DEB100BF71
:102F70001E4948681C49096888601B4982680968BD
:102F8000CA6019490968091D8268516016490968B3
:102F9000091D8160154A144909684A61114609688A
:102FA000491C116018E07C190F4800684460BC425D
:102FB00006D20D480168091D484600F04EFE0BE0A0
:102FC00009480168091D404600F047FE08480068AE
:102FD000844201D206480460BDE8F087B4000020B6
:102FE000A4000020A8000020A00000206808002005
:102FF000D000002010B5044600F056FE33480068AB
:10300000401C324908603248006840B930480460CA
:103010000846006801280DD100F0A6FA0AE02D4804
:10302000006838B92A480068C06AE16A884201D855
:103030002748046028480068401C2749086000BFF2
:1030400000BF2649E06A0968884202D92349E06A3C
:10305000086000BF00BFE16AC1EBC101204A02EB7A
:1030600081014868A0608268E260211D8268516029
:103070008160E16AC1EBC101194A02EB8102626120
:10308000E16AC1EBC101164A52F82110491CE26AFB
:10309000C2EBC202124B43F8221000BF00BF00F087
:1030A00015FE0C48006878B100BF09480068C06A86
:1030B000E16A884207D24FF080500A490860BFF3A6
:1030C0004F8FBFF36F8F00BF10BD0000B000002016
:1030D000A0000020BC000020CC000020B800002090
:1030E0006C07002004ED00E008B500F0DDFD0E489F
:1030F0000068A8B90D4800F09DFD0D4800F09AFD4C
:103100000A480C4908600A480B49086000200B4B2C
:103110000B4A102100900A2001F06AF80249086069
:1031200000F0D4FD08BD0000E80000201C0D0020C8
:10313000380D0020E0000020E4000020540D0020A5
:10314000B00D002010B516E000F0AEFD0C48C068D0
:10315000C468201D00F01AFD0A480068401E094995
:10316000086009480068401E0749086000F0AEFD8D
:10317000204600F0F8F8044800680028E4D110BDAB
:103180004C080020B0000020AC00002070B50446C0
:103190000D46206D70B1216DE0680144E160D4E915
:1031A0000210884201D32168E1602846226DE1685F
:1031B000FDF781FA70BD2DE9F04104460F46154632
:1031C0004FF00008A66C206D48B9206800282CD16B
:1031D000A06801F051FA80460020A06025E07DB98A
:1031E0003946226D6068FDF766FA216D6068084413
:1031F0006060D4E90101884217D32068606014E060
:103200003946226DE068FDF756FA216DE068411AF3
:10321000E1602168E068884203D2216DA068411A0C
:10322000E160022D01D106B1761E701CA0644046FB
:10323000BDE8F081F0B587B001260027002508E041
:103240001AA0405D06A9485506A8405D00B902E0F5
:103250006D1C042DF4DB00BF002421E0154F00207D
:103260000590049003AA04A905A800F0A9FC002277
:10327000DDE904101346CDE90021029006A9384685
:10328000039A01F001F90C4941F82400084650F86E
:10329000240008B1012600E0002606B902E0641C03
:1032A000012CDBDB00BF304607B0F0BD49444C4584
:1032B000000000006D340008D40000202DE9FF4F0D
:1032C00085B0074688469146DDE9145BDDE912A624
:1032D000ADB1A6B12C464C212046FDF75BFA266322
:1032E000022084F849000020CDE900ABCDE902407E
:1032F0004A4641463846089B00F0F3F800E00024B7
:10330000204609B0BDE8F08F2DE9FF5F07468846EB
:1033100016469946DDE90EABB00000F0A1FB05466C
:1033200075B14C2000F09CFB04462CB14C2120468A
:10333000FDF730FA256304E0284600F0D7FC00E0F2
:10334000002464B1002084F849004B4632464146CF
:10335000CDE900ABCDE90240384600F0C2F8204686
:1033600004B0BDE8F09F10B5044694F8490030B9A8
:10337000206B00F0BBFC204600F0B8FC06E094F89F
:103380004900012802D1204600F0B0FC10BD000029
:1033900000210C4A126802B101210B4A1268D26A5C
:1033A0000AB100200DE0094A1268012A01D9002063
:1033B00007E009B1002004E0054A1068054A1268D8
:1033C000801A7047B8000020A00000206C07002081
:1033D000D0000020B40000200146084A126812689C
:1033E0000AB9012200E000220A600A6822B9034AF1
:1033F0001268D268106800E000207047E0000020EA
:1034000030B54FF4A033144800F007042CB1C01DB0
:1034100020F00700104C041B1B1B104C20600024E4
:103420000E4D6C60C218083A22F007020C4C226064
:1034300000240B4D2D686C60094D2D682C600146F1
:10344000541A4C60064C24680C60064D4C682C6085
:10345000054D4C682C6030BD500E0020040100204A
:103460000C010020140100201001002000BFFFF714
:1034700069FE0F480068012807D94FF080500D49B8
:103480000860BFF34F8FBFF36F8FFFF781FF0446D4
:10349000022C0BD300F026FEFFF77AFF0446022C25
:1034A00002D3204600F048FC01F0C6F9DFE7000037
:1034B0006C07002004ED00E02DE9F04106460D46C2
:1034C00017469846069C0DB9246000E02760E66424
:1034D00025650121204600F0ABFE0020A065BDE877
:1034E000F0812DE9F05F81460E4690469A460A9F8C
:1034F0000C9C4FEA8801A522206BFDF721F9A8F169
:103500000100216B01EB800B2BF0070B7EB1002536
:1035100007E0715D04F134004155705D00B902E0CF
:103520006D1C042DF5D300BF002137200155052F58
:1035300000D30427E762A763201D00F08BFB04F192
:10354000180000F087FB2461C7F10500A0616462E8
:1035500052464946584600F003FB20600B9808B1DC
:103560000B980460BDE8F09F10B5002407E0C4EBA1
:10357000C4010F4A02EB810000F05CFB641C052CC7
:10358000F5D30C4800F056FB0B4800F053FB0B48FA
:1035900000F050FB0A4800F04DFB0A4800F04AFBDF
:1035A00004480949086004480849086010BD000043
:1035B0006C070020F80700201408002030080020C5
:1035C0004C08002068080020A4000020A80000206B
:1035D00010B50146164800E0006803688B42FBD333
:1035E0000246436813448B4204D143684C68234429
:1035F000436001460A464B6813440468A34211D154
:103600000C4C03682468A34208D04B6804686468C3
:1036100023444B6003681B680B6005E0054B1B6887
:103620000B6001E003680B60884200D0016010BDB0
:10363000040100200C0100202DE9F04104460D4654
:1036400016461F464FF0000865602461B5420CD84D
:10365000F01BA169884202D34FF0010811E0211D3F
:103660000948006800F0F9FA0BE0BE4204D2BD42FE
:1036700002D34FF0010804E0211D0448006800F067
:10368000ECFA4046BDE8F081E4000020E0000020B4
:1036900070B5054600F008FBA86C08B9012400E0ED
:1036A000002400F013FB204670BDF1B50098846D36
:1036B0000026A06CE16C884222D294F95550002279
:1036C00069462046FFF777FD0646681C60B9E06A48
:1036D00008B9012000E0002088B904F12C0001F0B5
:1036E0001BF860B101260AE000BF00F063FA07464C
:1036F000BD4203D2681C40B284F8550000BF00BF31
:103700003046F8BD70B505460E460E480068C068E4
:10371000C468201D00F03AFA94F8240000F0040078
:1037200028B132462946204600F0D6F805E094F844
:10373000240000F0FE0084F824002046216A884717
:1037400070BD0000E000002070B586B0002002903F
:1037500003900490059077E00298002805DA03AE04
:10376000D6E90020B168904700BF029800286BDBC3
:10377000049C606908B9012000E0002010B9201DF8
:1037800000F004FA01A800F0D3F8054602980A28D0
:1037900058D2DFE800F05705072E364706082F37C6
:1037A00000BF00BF00BF94F8240040F0010084F87F
:1037B00024000398A269811803462A462046FFF791
:1037C0003BFFA8B194F8240000F0040038B103983E
:1037D000A26981182A46204600F07EF805E094F898
:1037E000240000F0FE0084F824002046216A884767
:1037F00029E000BF94F8240000F0FE0084F82400C3
:1038000021E000BF94F8240040F0010084F8240077
:103810000398A061A06941192B462A462046FFF76C
:103820000BFF10E094F8240000F0020018B92046C5
:1038300000F05CFA05E094F8240000F0FE0084F843
:10384000240000E000BF00BF002202A90448006875
:1038500000F03EFD00287FF47FAF06B070BD000091
:10386000E8000020F8B505460C4600F03BFC684631
:1038700000F05EF80646009820BB44B9B54206D871
:1038800000F0DAFF31462846FFF73CFF1CE03CB170
:103890000E480068006808B9012000E000200446D6
:1038A000A91B22460A48006800F0E8FA00F0C4FFAD
:1038B00050B94FF0805007490860BFF34F8FBFF3F6
:1038C0006F8F01E000F0B8FFF8BD0000E4000020B9
:1038D000E800002004ED00E070B504460D461646F1
:1038E00004E0A06905442046216A8847A06941197F
:1038F0002B4632462046FFF79FFE0028F1D170BDCF
:1039000009480068006808B9012000E0002020B1E3
:103910004FF0FF300549086005E003480068C068C3
:103920000068024908607047A4000020D000002011
:1039300070B5044600F0C8FD05460748006885429A
:1039400004D200F00BF80120206001E0002020608C
:1039500001480560284670BDF000002070B508E001
:103960000D480068C06804684FF0FF312046FFF73B
:10397000C9FE09480068006808B9012000E000207D
:103980000028EDD004480568044800680249086032
:103990000248056070BD0000E0000020E400002047
:1039A00000BF502080F31188BFF34F8FBFF36F8F9C
:1039B00000BF00BFFEE708B500BF6846FFF70CFD7B
:1039C000044620460099FFF74DFFFFF7BDFEF4E7E0
:1039D00070B5044600F068F994F9555019E0A06DEF
:1039E00030B12046FFF761FE88B100F0F1FA0EE039
:1039F000E06A08B9012000E0002038B904F12C0089
:103A000000F08AFE18B100F0E3FA00E003E0681E5F
:103A100045B2002DE3DC00BFFF2084F8550000F024
:103A200055F900F041F994F9545010E0206908B9B3
:103A3000012000E0002048B904F1100000F06CFE05
:103A400008B100F0C5FA681E45B200E001E0002DA3
:103A5000ECDC00BFFF2084F8540000F037F970BDA3
:103A60002DE9F04704464FF00009DCB114F1090FCD
:103A700001D9012000E0002098B9083404F00700C3
:103A800080B104F00700C0F10808C8F1FF30A0427F
:103A900001D2012000E0002008B9444402E00024E3
:103AA00000E0002400F01EFB2848006808B9FFF77A
:103AB000A7FC012000EBE470002841D0002C3FD08F
:103AC0002348006884423BD8224E3046056801E016
:103AD0002E462D686868A04202D228680028F7D1D7
:103AE0001A48006885422BD0306800F10809286820
:103AF00030606868001B102807D92F196868001B00
:103B000078606C60306838603760114968680968AF
:103B1000081A0F490860084600680F49096888427A
:103B200003D20B4800680C490860686840F0004008
:103B300068600020286009480068401C0749086048
:103B400000F07AFE4846BDE8F08700000C01002036
:103B500010010020040100201401002018010020A1
:103B6000001F4FF080730360001F21F0010303600A
:103B7000001F054B036014380260001F6FF0020342
:103B80000360203870470000A139000801460A6927
:103B9000D1E901309860D1E901035860506888424A
:103BA00001D188685060002008611068401E1060D4
:103BB000106870470148006870470000B00000209E
:103BC000034B0360034B0B608023136070470000BE
:103BD00084080020D0080020034B0360034B0B60D7
:103BE0008023136070470000D00A00201C0B0020C7
:103BF0000C480D490860084600686FF07F41B1FB32
:103C0000F0F00A4908605E200949086000204FF082
:103C1000E021086188610348401E4861072008616F
:103C20007047000040900200F8000020FC000020D7
:103C30000001002000F1080141604FF0FF31816078
:103C400000F10801C160016100224261826100212E
:103C50000160704700210161704710B502460B6892
:103C60005C1C0CB9106907E002F1080000E0406834
:103C7000446824689C42FAD944684C604C68A1604E
:103C8000886041600A611468641C146010BD426859
:103C90004A6093688B60936859609160086103681B
:103CA0005B1C03607047000000BF502080F3118848
:103CB000BFF34F8FBFF36F8F00BF03480068401CF6
:103CC0000149086070470000F400002006480068C1
:103CD000401E054908600846006820B9002080F3AE
:103CE000118800BF00BF7047F400002070B5064681
:103CF0003546E6B1083D2C466068C00FB8B1206873
:103D0000A8B9606820F00040606000F0EBF9084955
:103D1000606809680844064908602046FFF758FCB7
:103D200004480068401C0349086000F085FD70BD30
:103D3000100100201C0100202DE9F04704464B48EB
:103D40000068844201D94948046872B6BFF34F8FB6
:103D5000BFF36F8FFEF7A8FF08B962B683E00620B5
:103D60004FF0E0210861084687690FB940480768AD
:103D7000601E3F49096801FB00753E48006800F07D
:103D8000806030B14FF000703A49086038480068F0
:103D90002D1A39480068854202D9374800682D1A23
:103DA0004FF0E020456100204FF0E0218861084697
:103DB000006940F001000861A146B9F1000404D097
:103DC000BFF34F8F30BFBFF36F8F62B6BFF34F8F1C
:103DD000BFF36F8F72B6BFF34F8FBFF36F8F0620A5
:103DE0004FF0E02108610846006900F48030B8B166
:103DF0001F490968491E4FF0E0229269AA1A881AE1
:103E00001D490968884203D919490968884202D9BD
:103E100017490968481E4FF0E0214861661E14E00A
:103E20004FF0E0208769124800686043A0EB070864
:103E30000F480068B8FBF0F6701C0D49096848434C
:103E4000A0EB08004FF0E021486100204FF0E02196
:103E500088610720086106480068401E48613046B6
:103E600000F020F962B6BDE8F0870000FC000020F9
:103E7000F800002004ED00E0000100202DE9F041F1
:103E800005460E4617462C46FFF70EFF94F95400E0
:103E9000401C10B9002084F8540094F95500401CCF
:103EA00010B9002084F85500FFF710FFA06C28B966
:103EB0003A46314604F12C0000F0A0F82046FFF706
:103EC00087FDBDE8F081000070B50446002544B1CF
:103ED00000F008F900212046FFF730F800F0ACFCB4
:103EE00005463DB94FF0805003490860BFF34F8F3E
:103EF000BFF36F8F70BD000004ED00E02DE9F041CD
:103F000005460026FFF7D0FE15B92448006800E0FA
:103F100028460446201DFFF739FEA06A18B104F1B7
:103F20001800FFF733FE1E480068401C1C4908605B
:103F30001A480068844201D1012000E000200746B1
:103F40001848006858B157B1211D1748FFF79FFE68
:103F500016480068401C15490860012606E0144810
:103F60000068401E12490860FFF7CAFCFFF7AEFE6A
:103F7000012E02D02046FFF7F6F90A48006858B132
:103F800006480068844207D14FF080500949086014
:103F9000BFF34F8FBFF36F8FBDE8F081A00000200B
:103FA000CC000020BC0000204C080020AC00002009
:103FB000B000002004ED00E00349096801600349F6
:103FC0000968416070470000C8000020B40000206C
:103FD0000120014908607047C400002070B5054603
:103FE0000C460548016818312846FFF736FE0121C6
:103FF0002046FEF7A3FF70BDA000002070B5044668
:104000000E46154600BF60680F490968C8610E4931
:10401000826809680A620C4909681831826851602F
:104020000949096818318160074909688C6221686B
:10403000491C216000BF0DB14FF0FF3629463046C4
:10404000FEF77CFF70BD0000A000002010B5FFF758
:10405000F1F80446012C02D100F0AEFC0446012C1C
:1040600014D100BF502080F31188BFF34F8FBFF3EE
:104070006F8F00BF4FF0FF300649086001200649EE
:10408000086000200549086000F074F804480068E2
:1040900010BD0000D0000020BC000020B4000020B3
:1040A000D800002070B504460B48006805190B487D
:1040B0000068854209D1FFF7F7FD09480068401CF8
:1040C00007490860FFF702FE641E034800682044A9
:1040D0000149086070BD0000B4000020D00000203D
:1040E000C000002002480068401C01490860704779
:1040F000DC0000201A48006818B101201949086046
:104100002CE000201749086000BF1748016800E054
:10411000491EC1EBC100154A52F8200008B9012020
:1041200000E000200028F3D100BFC1EBC1020F4B1B
:1041300003EB820042685268426000F10802436863
:10414000934201D1C26842604268D268084B1A604B
:1041500000BF0548016000BF1846006870470000B6
:10416000DC000020C4000020B80000206C07002004
:10417000A000002010B50E48006840F47F000C49F4
:1041800008600846006840F07F400860FFF730FD97
:10419000002008490860FCF775F80748006840F0FF
:1041A000404005490860FCF759F8002010BD0000A8
:1041B00020ED00E0F400002034EF00E010B500BF77
:1041C000502080F31188BFF34F8FBFF36F8F00BF74
:1041D00000F080F918B14FF080500449086000BF2A
:1041E000002080F3118800BF10BD000004ED00E046
:1041F0002DE9F84380460D4616461C46DDF8209012
:104200000027B8F1000F0FD074B106B165B106B93F
:1042100055B92746012087F856004B4632462946B5
:1042200040460097FFF748F93846BDE8F88300009C
:104230002DE9F04105460E4601272C46002C41D0C1
:10424000E06C00283ED0B91EE06CB1FBF0F0216DAF
:10425000884237D3FFF728FDD4E91312206801FB09
:104260000200A0600020A06420686060E06C401E36
:10427000226D216800FB0211E160FF2084F85400E8
:1042800084F855009EB9206908B9012000E000209B
:10429000A8B904F1100000F03FFA80B14FF080504F
:1042A0000A490860BFF34F8FBFF36F8F07E004F137
:1042B0001000FFF7BFFC04F12C00FFF7BBFCFFF779
:1042C00005FD00E000273846BDE8F08104ED00E080
:1042D0002DE9F74183B005460F464FF000082C4604
:1042E00000BFFFF7E1FCA66CF6B139462046FEF7A9
:1042F0004DFF701EA064206908B9012000E0002075
:1043000060B904F1100000F007FA38B14FF08050A6
:104310002F490860BFF34F8FBFF36F8FFFF7D6FCB5
:10432000012006B0BDE8F081059818B9FFF7CEFC72
:104330000020F6E7B8F1000F04D101A8FFF73CFE1A
:104340004FF00108FFF7C2FCFFF7CCFEFFF7ACFC13
:1043500094F95400401C10B9002084F8540094F9DA
:104360005500401C10B9002084F85500FFF7AEFC42
:1043700005A901A800F02EF8F0B92046FFF788F94A
:10438000A0B104F12C000599FFF728FE2046FFF7A5
:104390001FFB00F051FA0028A3D14FF080500C49C8
:1043A0000860BFF34F8FBFF36F8F9AE72046FFF788
:1043B0000FFB00F041FA94E72046FFF709FB00F0FD
:1043C0003BFA2046FFF764F900288AD00020A8E7CE
:1043D00004ED00E070B506460C46FFF765FC194891
:1043E00002687068131A1848006890F84A0030B1E3
:1043F00000201549096881F84A0001251EE020685F
:10440000401C08B9002519E0104930680968884245
:1044100006D07068904203D80125002020600DE08E
:104420002068984207D92068C01A20603046FFF7FC
:10443000C3FD002502E0002020600125FFF746FCB7
:10444000284670BDB4000020A0000020C800002055
:104450002DE9FC5F06460F4690469946DDE90CAB18
:104460004B46424639463046CDE900ABFEF74CFF9D
:10447000054625B12846FEF7BDFD012401E04FF0B9
:10448000FF342046BDE8FC9F2DE9F04F85B005467E
:104490000E4617469846DDE90FABDDF83890002050
:1044A000049004A843463A4631468DE8000E039036
:1044B0002846FEF703FF044614B12046FEF79AFD96
:1044C000049805B0BDE8F08F014908687047000006
:1044D000B40000202DE9F04100275C480068002866
:1044E0007ED15B480068451C5948056095B900BFFE
:1044F0005848D0F800805848006856490860564827
:10450000C0F8008055480068401C54490860FFF717
:10451000F7F900BF5248006885427ED300BF4D487E
:104520000068006808B9012000E0002020B14FF0C9
:10453000FF304B4908606FE046480068C068C468B7
:104540006668B54202D24648066065E000BF606911
:10455000D4E902128A60D4E902214A60211D42682E
:104560008A4201D1E1684160002262610168491E0E
:10457000016000BFA06AA0B100BFA06AD4E9071221
:104580008A60D4E907214A6004F1180142688A422E
:1045900001D1216A41600022A2620168491E0160C6
:1045A00000BF00BF00BF2F49E06A0968884202D9F6
:1045B0002C49E06A086000BF00BFE16AC1EBC1019D
:1045C000294A02EB81014868A0608268E260211DEF
:1045D000826851608160E16AC1EBC101224A00E05A
:1045E0002BE002EB81026261E16AC1EBC1011E4A6C
:1045F00052F82110491CE26AC2EBC2021A4B43F87E
:10460000221000BF00BF1949E06A0968C96A8842E0
:1046100085D9012783E700E000BF14480068C06A1D
:10462000C0EBC000104951F82000012800D9012733
:104630000F48006800B1012704E00E480068401CE4
:104640000C4908603846BDE8F0810000DC0000201D
:10465000B4000020A4000020A8000020C800002012
:10466000D0000020B80000206C070020A00000202F
:10467000C4000020C000002070B505462C4600266E
:10468000002D43D0E06B401EE063A16BE06A8842DE
:104690003CD0E06B002839D1201DFFF777FAA06BE2
:1046A000E062E06AC0F10500A06100BF00BF1849E8
:1046B000E06A0968884202D91549E06A086000BFCB
:1046C00000BFE16AC1EBC101124A02EB81014868F7
:1046D000A0608268E260211D826851608160E16AA9
:1046E000C1EBC1010B4A02EB81026261E16AC1EBDD
:1046F000C101084A52F82110491CE26AC2EBC20209
:10470000044B43F8221000BF00BF0126304670BDA5
:10471000B80000206C07002070B50646F068C46839
:1047200000BFA06AD4E907128A60D4E907214A6071
:1047300004F1180142688A4201D1216A41600022D5
:10474000A2620168491E016000BF35480068002868
:1047500046D100BF6069D4E902128A60D4E902211F
:104760004A60211D42688A4201D1E168416000220D
:1047700062610168491E016000BF00BF00BF294996
:10478000E06A0968884202D92649E06A086000BFE9
:1047900000BFE16AC1EBC101234A02EB8101486815
:1047A000A0608268E260211D826851608160E16AD8
:1047B000C1EBC1011C4A02EB81026261E16AC1EBFB
:1047C000C101194A52F82110491CE26AC2EBC20227
:1047D000154B43F8221000BF00BFFFF791F811E01E
:1047E00000BF12494868E0618268226204F1180142
:1047F0008268516081600D4AA26211460968491CB5
:10480000116000BF0A49E06A0968C96A884204D990
:10481000012501200749086000E00025284670BDF9
:10482000DC000020B80000206C07002030080020C9
:10483000A0000020C40000202DE9F0410024002742
:10484000FFF732FA002553480068401E51490860BE
:104850000846006800286FD14F48006800286BD0D8
:1048600065E04E48C068C46800BFA06AD4E907127A
:104870008A60D4E907214A6004F1180142688A423B
:1048800001D1216A41600022A2620168491E0160D3
:1048900000BF00BF6069D4E902128A60D4E9022136
:1048A0004A60211D42688A4201D1E16841600022CC
:1048B00062610168491E016000BF00BF00BF384946
:1048C000E06A0968884202D93549E06A086000BF99
:1048D00000BFE16AC1EBC101324A02EB81014868C5
:1048E000A0608268E260211D826851608160E16A97
:1048F000C1EBC1012B4A02EB81026261E16AC1EBAB
:10490000C101284A52F82110491CE26AC2EBC202D6
:10491000244B43F8221000BF00BF2349E06A096816
:10492000C96A884203D90120204941F825001B4863
:10493000006810B9012001E026E00020002890D096
:104940000CB1FEF7DDFF1A4806686EB100BFFFF735
:10495000C1FD18B10120154941F82500761E002E31
:10496000F5D1002012490860104850F8250058B1D0
:10497000012700BF0C48006838070E490860BFF3E4
:104980004F8FBFF36F8F00BFFFF7A0F93846BDE828
:10499000F0810000DC000020B00000203008002082
:1049A000B80000206C070020A0000020C4000020F8
:1049B000C000002004ED00E010B586B00024FEF732
:1049C00093FB10480068D0B100200590049003AA22
:1049D00004A905A8FFF700F90422DDE9041000236B
:1049E000CDE90021029008A10948039AFFF74CFD88
:1049F000084908600846006800B1012400BF20464D
:104A000006B010BDE8000020546D7220537663009C
:104A1000B7390008EC0000204FF04070E1EE100ABA
:104A2000704700001C0700203007002044070020CA
:104A30005807002030313233343536373839414267
:104A400043444546403058003031323334353637F0
:104A5000383961626364656640307800040000089C
:104A60000000000000000002000100001000000033
:104A7000904A00080000002020010000C401000846
:104A8000B04B000820010020906D0100E0010008FB
:104A900000000000010203040102030406070809E4
:104AA0000000000000000000000000000000000006
:104AB00000000000000000000000000000000000F6
:104AC00000000000000000000000000000000000E6
:104AD00000000000000000000000000000000000D6
:104AE000000000006464640000000000000000009A
:104AF00000000000000000000000000000000000B6
:104B000000000000000000000000000000000000A5
:104B100000000000000000000000803F6F12833A98
:104B2000CDCCCC3D000000000000000000000000E3
:104B30000000000000000000000000000000000075
:104B40000000000000000000000000000000000065
:104B50000000000000000000000000000000000055
:104B60000000000000000000040000000000000041
:104B70000000000000000000000000000000000035
:104B800000000000AAAAAAAA00000000000000007D
:104B90000000000000000000000000000000000015
:104BA0000000000000000000000000000000000005
:040000050800018965
:00000001FF
